:020000042001D9
:100000009711FF5F9381012C970200009382820178
:100010007390523093021000638402007350107C7E
:10002000970200009382C211739052301701FFDFD4
:10003000130141FD63140100138101D0732540F1C8
:10004000814213030040137101FF6385A2001A91DE
:100050008502D5BF970000009380200863830000CD
:100060008290732540F181450146FD209700FFDF16
:10007000938040F96383000082909702000093828E
:10008000C2007390523003230000F5BF000000004F
:100090008280A14673B306309302400063C55500C9
:1000A0001376350011CA230005000505FD15E34749
:1000B000B0FE731003308280232005001105F11576
:1000C000E34EB0FC73100330828023200300110341
:1000D000E34D73FE828006849702FFDF938282F2F3
:1000E000638C02049702FFDF9382C2F1F32740F191
:1000F000A14673B006300A839703FFDF93838330F2
:100100008A9363037300D137639857021703FF5F25
:10011000130343EF9713FF5F9383C39F630373003E
:100120006D371703FFE71303E3ED9703FFE79383AF
:1001300063ED63037300513FA2808280F322203479
:1001400073231034F3233034D5BF411122C6000885
:10015000010032444101828006849711FF5F938140
:100160006116930200006311550E9782000093827E
:10017000E26A1703FF5F1303E3E89713FF5F9383BC
:100180006399638C6200635A730003A502009102B5
:100190002320A3001103E34A73FE97120000938209
:1001A000E2011703FFE71303E3E59703FFE79383F8
:1001B00063E5638C6200635A730003A50200910239
:1001C0002320A3001103E34A73FE0F1000009712CF
:1001D00000009382A2FE1703FF5F1303A3E29703BD
:1001E000FF5F938323E2638C6200635A730003A56D
:1001F000020091022320A3001103E34A73FE0F10B3
:1002000000001713FF5F1303E3909383418F63573D
:100210007300232003001103E34D73FE1712FF5FE9
:100220001302428F11C2029617850000130545BFC5
:10023000EF70F03AEF701042178500001305C558B3
:10024000EF70F039EF80A0560937FD5673B0463095
:1002500073B04634F3271030372704007D8F09C769
:1002600073B0363073B02630370704007D8F19C362
:1002700073B006183707010013078702F98F89CB7F
:10028000F32700300967D98F73900730735030001F
:10029000F327103037072000F98F99C7F327003074
:1002A00093E7072073900730054597150000938565
:1002B000A5DE17160000130666DE3120EF709033BE
:1002C000A28082808280411106C2F32240F1130392
:1002D00000006385620073005010F5BFEF0050729C
:0602E00092404101828002
:0C02E800F4020120200301204A03012041
:1002F400011106CE22CC0010EF50A0062326A4FE46
:100304008327C4FE99C7B7170080138547ABEF5006
:10031400C00D0100F240624405618280011106CEE5
:1003240022CC0010EF50E0032326A4FE8325C4FE54
:10033400B7170080138547ABEF70C02E0100F24061
:10034400624405618280411106C622C40008F16737
:1003540093850720B71700801385C7A5EF706068E1
:0A0364000100B240224441018280F2
:10037000493243206E6F7420617661696C61626CF2
:1003800065200000446174612072656164203D2035
:1003900025580A00494D55206D6F64756C652064C1
:1003A0006574656374656421000000004661696CD2
:1003B000656420746F2064657465637420494D55CD
:1003C000206D6F64756C652100000000494D55205B
:1003D000616363656C65726F20656E61626C6564F4
:1003E00021000000494D55206779726F20656E61CC
:1003F000626C65642100000053746174757320524F
:100400006567203D2025580A000000004779726F7B
:10041000205A204D5342203D2025580A000000005C
:100420004779726F205A204C5342203D2025580AAC
:1004300000000000416363656C65726F2058204DB9
:100440005342203D2025580A0000000041636365A7
:100450006C65726F2058204C5342203D2025580A6D
:1004600000000000416363656C65726F2059204D88
:100470005342203D2025580A000000004163636577
:100480006C65726F2059204C5342203D2025580A3C
:10049000000000000000000000000000000000005C
:1004A000000000000000000000000000000000004C
:1004B000000000000000000000000000000000003C
:1004C000000000000000000000000000000000002C
:1004D000000000000000000000000000000000001C
:1004E000000000000000000000000000000000000C
:1004F00000000000232D302B20000000686C4C0011
:10050000656667454647000030313233343536374B
:10051000383941424344454600000000303132330F
:10052000343536373839616263646566000000002F
:1005300042290120E82A0120CC2A012000000000E5
:1005400000000000D82D01200C2E0120CA29012016
:10055000A42A0120402B0120F22B012000000000E2
:10056000000000000000000000000000000000008B
:10057000000000000000000000000000A42C01208A
:1005800076280120000000000000000000000000AC
:10059000000000002C3F01201E3F0120F23E012000
:1005A000F23E0120083F0120E63F01204C4001209F
:1005B0004C400120F83F01204C4001204C400120DC
:1005C0004C4001200A4001204C4001204C400120B9
:1005D0004C4001201C4001204C4001204C40012097
:1005E0004C4001204C4001202E4001202E40012093
:1005F0002E4001202E4001202E4001202E400120BF
:100600002E4001202E4001202E4001202E400120AE
:100610002E4001202E4001202E4001202E4001209E
:100620002E4001202E400120AE400120D643012063
:10063000BA4301200000000000000000000000009C
:1006400000000000904101200000000066430120EE
:1006500090430120000000000000000000000000A6
:10066000000000000000000000000000000000008A
:10067000000000002A4401200000000000000000EB
:1006800000000000000000000000000046440120BF
:10069000B8440120FE44012064450120DA450120D0
:1006A000F0450120044601201A4601202E46012073
:1006B00090460120F2460120524701207247012056
:1006C000B8470120E64701200448012024480120C2
:1006D0001E4C01200000000000000000000000008F
:1006E000000000000000000000000000704D01202C
:1006F00000000000324E0120824E01200000000068
:1007000000000000024F0120D24E01208C4A01203F
:100710002A4A012000000000000000000000000044
:10072000000000002A4F0120C64F01206250012026
:10073000D65001200100000020000000001BB7007F
:1007400000366E01010000001F00000003000000E1
:100750003F000000010000002000000000366E0194
:10076000006CDC02030000001F000000020000001B
:100770003F0000000100000010000000808D5B00C1
:10078000001BB700000000001F0000000300000075
:100790003F0000000100000010000000001BB70037
:1007A00000366E01010000001F0000000200000082
:1007B0003F000000010000001000000000366E0144
:1007C000006CDC02030000001F00000002000000BB
:1007D0001F0000000100000008000000808D5B0089
:1007E000001BB700000000001F0000000300000015
:1007F0001F0000000100000008000000001BB700FF
:1008000000366E01010000001F0000000200000021
:100810001F000000010000000800000000366E010B
:10082000006CDC02030000001F000000020000005A
:100830000F0000000100000004000000808D5B003C
:10084000001BB700000000001F00000003000000B4
:100850000F0000000100000004000000001BB700B2
:1008600000366E01010000001F00000002000000C1
:100870000F000000010000000400000000366E01BF
:10088000006CDC02030000001F00000002000000FA
:10089000070000000100000002000000808D5B00E6
:1008A000001BB700000000001F0000000200000055
:1008B0000F0000000100000002000000001BB70054
:1008C00000366E01010000001F0000000100000062
:1008D0000F000000010000000200000000366E0161
:1008E000006CDC02030000001F000000010000009B
:1008F000070000000200000001000000808D5B0086
:10090000001BB700000000001F00000001000000F5
:10091000070000000200000001000000001BB700FB
:1009200000366E01010000001F0000000100000001
:1009300003000000020000000100000000366E010C
:10094000006CDC02030000001F0000000300000038
:10095000FFFFFFFF0400000001000000808D5B002E
:10096000001BB700000000001F0000000300000093
:10097000000000000400000001000000001BB700A0
:1009800000366E01010000001F000000030000009F
:10099000FFFFFFFF040000000100000000366E01B1
:1009A000006CDC02030000001F00000002000000D9
:1009B000FFFFFFFF0600000001000000808D5B00CC
:1009C000AAC2A200000000002300000001000000F5
:1009D000020000000600000001000000AAC2A20000
:1009E000001BB7000000000017000000030000001B
:1009F000FFFFFFFF0600000001000000001BB70022
:100A00000024F400010000002F000000030000009B
:100A1000FFFFFFFF06000000010000000024F400BB
:100A200080A8120101000000170000000200000071
:100A3000FFFFFFFF060000000100000080A8120178
:100A4000558545010200000023000000020000005F
:100A5000FFFFFFFF0800000001000000808D5B0029
:100A6000001BB700000000001F0000000300000092
:100A7000FFFFFFFF0800000001000000001BB7009F
:100A800000366E01010000001F000000020000009F
:100A9000FFFFFFFF080000000100000000366E01AC
:100AA000006CDC02030000001F00000001000000D9
:100AB000FFFFFFFF0A00000001000000808D5B00C7
:100AC000007C9200000000002700000003000000EE
:100AD000FFFFFFFF0A00000001000000007C920001
:100AE000001BB7000000000013000000020000001F
:100AF000FFFFFFFF0A00000001000000001BB7001D
:100B000000F824010100000027000000020000009E
:100B1000FFFFFFFF0A0000000100000000F82401B1
:100B200000366E010100000013000000010000000B
:100B3000FFFFFFFF0A0000000100000000366E0109
:100B400000F049020300000027000000010000003F
:100B5000FFFFFFFF0C00000001000000808D5B0024
:100B600000127A00000000002F00000003000000C7
:100B7000FFFFFFFF0C0000000100000000127A00E0
:100B8000001BB7000000000017000000020000007A
:100B9000FFFFFFFF0C00000001000000001BB7007A
:100BA0000024F400010000002F00000002000000FB
:100BB000FFFFFFFF0C000000010000000024F40014
:100BC00000366E0101000000170000000100000067
:100BD000FFFFFFFF0C0000000100000000366E0167
:100BE00080C3C901030000002F00000001000000C5
:100BF000FFFFFFFF0C0000000100000080C3C901DF
:100C00000048E801030000002F0000000100000080
:100C1000FFFFFFFF0E00000001000000808D5B0061
:100C2000B6A16800000000003700000003000000CB
:100C3000FFFFFFFF0E00000001000000B7A16800E9
:100C4000001BB700000000001B00000002000000B5
:100C5000FFFFFFFF0E00000001000000001BB700B7
:100C60006D43D100010000003700000002000000C9
:100C7000FFFFFFFF0E000000010000006E43D100E7
:100C800000366E01010000001B00000001000000A2
:100C9000FFFFFFFF0E0000000100000000366E01A4
:100CA000DB86A20103000000370000000100000005
:100CB000FFFFFFFF1000000001000000808D5B00BF
:100CC000001BB700000000001F0000000200000031
:100CD000FFFFFFFF1000000001000000001BB70035
:100CE00000366E01010000001F000000010000003E
:100CF000FFFFFFFF1200000001000000808D5B007D
:100D0000AAC2A200000000002300000002000000B0
:100D1000FFFFFFFF1200000001000000ABC2A200B5
:100D2000001BB700000000001100000001000000DF
:100D3000FFFFFFFF1200000001000000001BB700D2
:100D4000558545010100000023000000010000005E
:100D5000FFFFFFFF1400000001000000808D5B001A
:100D6000007C92000000000027000000020000004C
:100D7000FFFFFFFF1400000001000000007C920054
:100D8000001BB7000000000013000000010000007D
:100D9000FFFFFFFF1400000001000000001BB70070
:100DA00000F82401010000002700000001000000FD
:100DB000FFFFFFFF1600000001000000808D5B00B8
:100DC000E82A8500000000002B000000020000005F
:100DD000FFFFFFFF1600000001000000E92A850068
:100DE000001BB7000000000015000000010000001B
:100DF000FFFFFFFF1600000001000000001BB7000E
:100E0000D1550A01010000002B0000000100000084
:100E1000FFFFFFFF1800000001000000808D5B0055
:100E200000127A00000000002F0000000200000005
:100E3000FFFFFFFF180000000100000000127A0011
:100E4000001BB700000000001700000001000000B8
:100E5000FFFFFFFF1800000001000000001BB700AB
:100E60000024F400010000002F0000000100000039
:100E7000FFFFFFFF1A00000001000000808D5B00F3
:100E800027AE7000000000003300000002000000E8
:100E9000FFFFFFFF1A0000000100000028AE7000F5
:100EA000001BB70000000000190000000100000056
:100EB000FFFFFFFF1A00000001000000001BB70049
:100EC0006658E1000100000033000000010000004E
:100ED000FFFFFFFF1C00000001000000808D5B0091
:100EE000B6A168000000000037000000020000000A
:100EF000FFFFFFFF1C00000001000000B7A1680019
:100F0000001BB700000000001B00000001000000F3
:100F1000FFFFFFFF1C00000001000000001BB700E6
:100F20006D43D10001000000370000000100000007
:100F3000FFFFFFFF1E00000001000000808D5B002E
:100F400000A86100000000003B000000020000005B
:100F5000FFFFFFFF1E0000000100000000A861006D
:100F6000001BB700000000001D0000000100000091
:100F7000FFFFFFFF1E00000001000000001BB70084
:100F80000050C300010000003B0000000100000011
:100F9000FFFFFFFF2000000001000000808D5B00CC
:100FA000001BB700000000001F000000010000004F
:100FB000FFFFFFFFEE530120925401205258012001
:100FC000F4600120726101208A610120A661012084
:100FD000F4610120D86101201062012046620120E5
:100FE00034640120FA620120126301202E63012083
:100FF0007C6301206063012098630120CE6301209F
:101000001E5E0120DE5D0120645E01208E5E0120F7
:10101000BA5E0120005F0120405F0120805F012057
:10102000C65F01200660012068600120B2600120D7
:10103000B86201204064012060640120C465012081
:1010400010690120786A0120D06B012052660120CE
:10105000726601209E740120407201201C710120E3
:1010600082720120D8720120F8720120F86F0120ED
:10107000187001203870012072700120AA700120C0
:10108000E47001204C71012096710120C67101208D
:10109000107201209C100120000000006C69626742
:1010A0006C6F73730000000000010202030303036E
:1010B00004040404040404040505050505050505E8
:1010C00005050505050505050606060606060606C8
:1010D00006060606060606060606060606060606B0
:1010E0000606060606060606070707070707070798
:1010F0000707070707070707070707070707070780
:10110000070707070707070707070707070707076F
:10111000070707070707070707070707070707075F
:101120000707070707070707080808080808080847
:10113000080808080808080808080808080808082F
:10114000080808080808080808080808080808081F
:10115000080808080808080808080808080808080F
:1011600008080808080808080808080808080808FF
:1011700008080808080808080808080808080808EF
:1011800008080808080808080808080808080808DF
:1011900008080808080808080808080808080808CF
:1011A00008080808080808080F1E272629282B2ADF
:0411B00010A01180FA
:10120000797106D622D40018B71701209387871A60
:1012100098432322E4FEDC432324F4FE0145EF60DF
:10122000C0662326A4FE8327C4FE81EBB7070120F6
:1012300013850737E52E8547F1A40546E1679385B9
:10124000076A0325C4FEEF604055930744FE01473B
:10125000BE8605469305A0060325C4FEEF60205711
:10126000AA8795E79307C4FD0547BE860546930503
:10127000A0060325C4FEEF60E059AA8789EB8347E7
:10128000C4FDBE85B70701201385473849240347AD
:10129000C4FD930790066318F700B7070120138574
:1012A0004739692631A0B70701201385C73ABD2EFB
:1012B000B717012083A7071B232CF4FC930784FD99
:1012C0000547BE8609469305A0060325C4FEEF60C8
:1012D0000050AA8791E7B70701201385C73CB926BC
:1012E000930784FD89070547BE8609469305A00636
:1012F0000325C4FEEF60A04DAA8791E7B707012040
:101300001385473E2526930744FE85070147BE8681
:1013100005469305A0060325C4FEEF60404BAA874F
:101320009DE79307C4FD85070547BE8605469305DF
:10133000A0060325C4FEEF60E04DAA8789EB834732
:10134000D4FDBE85B70701201385873FC9229307C7
:1013500044FE89070147BE8605469305A00603257E
:10136000C4FEEF60C046AA879DE79307C4FD8907C6
:101370000547BE8605469305A0060325C4FEEF601B
:101380006049AA8789EB8347E4FDBE85B707012042
:101390001385C740AD2A930744FE8D070147BE86DB
:1013A00005469305A0060325C4FEEF604042AA87C8
:1013B0009DE79307C4FD8D070547BE860546930547
:1013C000A0060325C4FEEF60E044AA8789EB8347AB
:1013D000F4FDBE85B7070120138507420D2A930748
:1013E00044FE91070147BE8605469305A0060325E6
:1013F000C4FEEF60C03DAA879DE79307C4FD910737
:101400000547BE8605469305A0060325C4FEEF608A
:101410006040AA8789EB834704FEBE85B707012099
:1014200013854743ED20930744FE95070147BE8689
:1014300005469305A0060325C4FEEF604039AA8740
:101440009DE79307C4FD95070547BE8605469305AE
:10145000A0060325C4FEEF60E03BAA8789EB834723
:1014600014FEBE85B70701201385C7444D2093079E
:1014700044FE99070147BE8605469305A00603254D
:10148000C4FEEF60C034AA879DE79307C4FD9907A7
:101490000547BE8605469305A0060325C4FEEF60FA
:1014A0006037AA8789EB834724FEBE85B7070120F2
:1014B00013854746A928930744FE9D070147BE862A
:1014C00005469305A0060325C4FEEF604030AA87B9
:1014D000E39B07E29307C4FD9D070547BE860546CB
:1014E0009305A0060325C4FEEF60C032AA87E39CE3
:1014F00007E0834734FEBE85B70701201385C74741
:10150000392011B53E85B25022544561828039712F
:101510003EDA2ED232D436D63AD842DC46DE97F7BF
:10152000FE5F9387A75A22CC804326CA06CEAA84A0
:1015300009C41C4C99E322851D2B0C4454102686AB
:10154000228536C6EF001019F2406244D244216170
:101550008280011126CA4AC806CE22CC4EC652C489
:10156000AA842E8901C51C4D91E311239C4C804413
:1015700099E32685ED2997F7FFFF9387E7F3631C2F
:10158000F402C0408357C400A18BB1C71C48A1C757
:10159000FD59294A1C4483450900FD17B1E91CC4C3
:1015A00063DE07062286A94526854128FD57630884
:1015B000F502294535A097F7FFFF9387E7F16314FC
:1015C000F4008044C1B797F7FFFF9387E7ECE31B74
:1015D000F4FAC04445BFA2852685052255D97D551C
:1015E000F2406244D2444249B249224A05618280B3
:1015F0001CC4050963D70700184C63CBE700638957
:1016000045011C401387170018C02380B70059B745
:10161000228626851D20E31F35F7D1B71C4013878E
:10162000170018C029472380E70061B797F7FE5FCE
:101630009387C749AA85884329BF011122CC26CAAE
:101640004AC806CE4EC6AA842E89328401C51C4DD6
:1016500091E3312997F7FFFF938707E66319F406B3
:10166000C0401C4C1CC48357C400A18BC9C31C4878
:10167000BDCF1C4808409379F90F1379F90F1D8DE0
:101680005C486346F500A2852685E9242DE51C44C7
:101690000505FD171CC41C401387170018C02380C4
:1016A00037015C486389A7008357C400858B81CBD1
:1016B000A9476316F900A2852685692C0DEDF24035
:1016C00062444A85D2444249B2490561828097F713
:1016D000FFFF938767E06314F400804459B797F7DE
:1016E000FFFF938767DBE31EF4F6C0449DBFA2852E
:1016F000268521203DDD7D59D9B7411197F7FE5F41
:101700009387C73C26C2844322C44AC006C62A899E
:101710002E8489C49C4C99E32685912E97F7FFFF70
:10172000938787D9631CF402C0400317C400931742
:101730000701C18393F68700B5EE93F607019DEE8E
:10174000A5472320F900136707042316E4007D55FD
:10175000B2402244924402494101828097F7FFFF40
:10176000938787D76314F4008044C1B797F7FFFFCE
:10177000938787D2E31BF4FAC04445BF918B8DC792
:101780004C5889C9930744046384F5004A85812B2A
:10179000232A04028357C4002322040093F7B7FDD1
:1017A0002316F4001C481CC08357C40093E787002D
:1017B0002316F4001C4881EF8357C4001307002050
:1017C00093F707286385E700A2854A859D21835703
:1017D000C40013F7170005C75C4823240400B307AF
:1017E000F0401CCC1C480145A5F78317C40013F733
:1017F000070839DF93E707042316F40089BF898BB4
:10180000014791E3584818C4F1BF83D7C5000111BF
:1018100022CC26CA06CE4AC84EC613F78700AA8431
:101820002E8465E7D8416347E000B8416344E00097
:101830000145C1A058546DDF03A9040093963701F8
:1018400023A0040063DE060668488357C400918B1A
:1018500099C75C401D8D5C5899C33C401D8D5C54FC
:101860000C502A86814626858297FD570357C4006F
:10187000631DF5009440F54763E4D708B70740209F
:101880008507B3D7D700858BA5CF1C48232204003A
:101890001CC09317370163D80700FD576314F50088
:1018A0009C4091E368C84C5823A02401D1D19307F0
:1018B00044046384F50026851D21232A04028DBF7C
:1018C0000C508546014626850297FD57E31FF5F625
:1018D0009C40A5DF75476385E70059476395E7009E
:1018E00023A02401B1B78357C40093E7070423164C
:1018F000F400F2406244D2444249B2490561828018
:10190000136707042316E400EDB783A90501E381FB
:1019100009F203A905008D8B23A035013309394154
:10192000014791E3D84918C4E35420F11C540C50EA
:10193000CA864E8626858297634AA0008357C400D4
:101940007D5593E707042316F40065B7AA99330978
:10195000A940D9BF9C49B9CF011122CC06CE2A8417
:1019600011C51C4D81E72EC61922B24597F7FFFF1E
:10197000938787B4639BF5004C408397C50095C758
:1019800022856244F240056149B597F7FFFF9387CE
:10199000A7B46394F5000C44CDB797F7FFFF938786
:1019A000A7AFE39CF5FC4C44C9BFF240624401453B
:1019B0000561828001458280411122C406C62A84C5
:1019C0002316B5002317C500232005002322050098
:1019D000232405002322050623280500232A0500C9
:1019E000232C0500214681451305C505CD24970705
:1019F00000009387877A5CD0970700009387E77C85
:101A00001CD497170000938727815CD49717000098
:101A10009387E78300D01CD8B240224441018280E2
:101A200097050000938545F399A2411126C213063C
:101A300080069384F5FFB384C4024AC02E8922C471
:101A400006C69385440791262A8419C923200500D8
:101A500023222501310508C4138684068145852C7F
:101A60002285B240224492440249410182801C4DA9
:101A7000ADE3411106C622C497070000938787FA99
:101A80001CD59387C1809C43232405042326050489
:101A9000232805046314F50085471CCD2A841D28DE
:101AA00048C02285052808C422852D2048C4484006
:101AB00001469145113708440546A545F53D484482
:101AC0000946C945D53D85471CCCB2402244410159
:101AD0008280828041119387C18026C284434AC09C
:101AE00006C69C4C22C42A8999E3268549379384EB
:101AF00084048044DC40FD1763D607009C40B1CFCE
:101B00008440C5BF0317C40031E7C177850723228E
:101B100004062320040023220400232404005CC4C0
:101B200023280400232A0400232C04002146814595
:101B30001305C405692A232A0402232C0402232442
:101B40000404232604042285B2402244924402491C
:101B5000410182801304840679BF91454A85F1359D
:101B600088C02A8451FDB1472320F900E9BF79716B
:101B700022D44AD052CC56CA5AC85EC606D626D2FD
:101B80004ECE2A8AAE8A130485040149054BFD5BBB
:101B900009ECB25022544A8592540259F249624AE1
:101BA000D24A424BB24B45618280044483294400AF
:101BB000FD1963D409000040E1BF83D7C400637BF3
:101BC000FB008397E40063877701A6855285829A9C
:101BD0003369A90093848406E1BF1971A6DAAE8443
:101BE0008395E500A2DC86DE328463DC050083D7C2
:101BF000C40023A0060093F707089DE39307004065
:101C000015A0300836C64D25B246E34205FE7247A0
:101C1000BD67F98F7977BA9793B717009CC2F9BF60
:101C2000930700041CC0F6506654D6540145096160
:101C3000828083D7C500011122CC06CE26CA4AC8AD
:101C4000898B2E8489CF930774041CC01CC88547D8
:101C50005CC8F2406244D24442490561828074000B
:101C60003000AA849D3FA2452A892685392A01EDA4
:101C70008317C40013F7072069FFF19B93E7270040
:101C80002316F400C9B7970700009387A7D99CD4FF
:101C90008357C40008C008C893E707082316F40058
:101CA000A2475CC8B24789CF8315E40026851D256D
:101CB00001C98357C400F19B93E717002316F40072
:101CC0008357C4003369F9002316240159B72A83C6
:101CD00011C62300B3007D16050365FE8280CDC5C5
:101CE00083A7C5FF411122C406C626C21384C5FFBF
:101CF00063D307003E94AA84B92597F7FE5F9387C4
:101D000067E19C4389EF2322040097F7FE5F23A33A
:101D100087E02244B24026859244410135A5637E86
:101D2000F40014403307D4006396E7009843DC4383
:101D3000369718C05CC0D1BFBA87D84319C3E37DBA
:101D4000E4FE94433386D700631F86001040B296AA
:101D500094C33386D700E31EC7FA10435843B296A4
:101D600094C3D8C37DB76375C400B1479CC055B751
:101D70001040B306C4006316D70014435843B2960C
:101D800014C058C0C0C371B78280011126CA9384A1
:101D90003500F19806CE22CC4AC84EC6A104B14700
:101DA00063F7F404B14463E6B4042A89692B97F716
:101DB000FE5F938727D698433A8431E497F7FE5F16
:101DC000938787D59C4381EB81454A85452697F7C4
:101DD000FE5F23A3A7D4A6854A85492EFD59631922
:101DE0003507B1472320F9004A85B92B29A0E3DC48
:101DF00004FAB1471CC10145F2406244D244424951
:101E0000B249056182801C40858F63C00704AD46DE
:101E100063F6F6001CC03E9404C001A85C40631445
:101E2000870217F7FE5F2327F7CE4A85312B13056C
:101E3000B4009307440061993307F54055DF3A94A5
:101E4000898F1CC055BF5CC3CDB722874040B5B752
:101E5000130435007198E30185FCB305A4404A855D
:101E60003126E31B35FBB5BF1C46FD171CC663DAE4
:101E70000700184E63C5E700A9476394F5006FF0AB
:101E8000CFFB1C422E851387170018C22380B70092
:101E90008280011122CC26CA4AC84EC652C406CE40
:101EA0002A89AE893284B304D6007D5A6314940023
:101EB000014509A8834504004E864A857537050407
:101EC000E31645FFF2406244D2444249B249224AF5
:101ED00005618280357122CD26CB4AC94EC706CF17
:101EE00052C556C35AC1DEDEE2DCE6DAAA89AE8408
:101EF0003289368401C51C4D91E3953E97E7FFFF7B
:101F00009387875B639BF40C83A4490083D7C40049
:101F1000A18BF5C79C48E5C793070002A304F10213
:101F20009307000302D22305F10222C6930B50024D
:101F300097EAFFFF938A4A5C054C294B4A84834702
:101F4000040099C36390770FB30C2441638D0C0098
:101F5000E6864A86A6854E852D3FFD576306F51E0B
:101F60009256E69636D283470400638F071CFD57CE
:101F70001309140002C802CE3ECA02CCA309010410
:101F800082D483450900154656854D261304190051
:101F9000C24759E913F7070109C713070002A3094C
:101FA000E10413F7870009C71307B002A309E1048E
:101FB000834609001307A0026380E608F2474A84BB
:101FC000814625460347040093051400130707FDC7
:101FD0006379E60AB5CA3ECE85A897E7FFFF9387E7
:101FE000A74F6395F40083A489000DB797E7FFFF1F
:101FF0009387874AE39CF4F083A4C90001BFA685B8
:102000004E85EFF08FEF09D97D55FA406A44DA44E6
:102010004A49BA492A4A9A4A0A4BF65B665CD65C38
:102020000D618280050421BF330555413315AC0095
:10203000C98F3EC82289B1B732479306470018437B
:1020400036C6634907023ACE034704009307E0020D
:10205000631FF704034714009307A002631BF702F2
:10206000B2470904138747009C433AC663C107027D
:102070003ECA35A83307E04093E727003ACE3EC872
:10208000E1B7B387670385462E84BA9725BFFD570E
:10209000C5B7050402CA81468147254603470400A7
:1020A00093051400130707FD6376E606F1F28345F6
:1020B00004000D4617E5FFFF13058544852C11CD5F
:1020C00097E7FFFF9387C7431D8D93070004B397DE
:1020D000A700424505045D8D2AC8834504001946C2
:1020E00017E5FFFF13050542130914002304B1028D
:1020F000352C3DC197E7FEDF9387C7F095E7424750
:10210000B2471377071009CF91073EC69257D2976F
:102110003ED22DB5B387670385462E84BA97BDBFDF
:102120009D07E19BA107D5B778009706000093862D
:1021300086D626860C084E8597000000E700000032
:10214000FD572A8AE314F5FC83D7C40093F70704EC
:10215000E39C07EA125555BD780097060000938668
:1021600086D326860C084E85FD24D9BF411122C492
:102170002A842E8523A8018E06C6EF50B038FD575D
:102180006317F5009387018F9C4391C31CC0B24035
:10219000224441018280411122C42E848395E500AE
:1021A00006C6992B634905007C48AA977CC8B240B3
:1021B0002244410182808357C4007D777D17F98FC7
:1021C0002316F400EDB783D7C500011122CC26CA2F
:1021D0004AC84EC606CE93F70710AA842E843289C9
:1021E000B68991C78395E50089460146092A835738
:1021F000C4007D777D17F98F2316F4008315E40062
:102200006244F240CE864A86B24942492685D2448B
:1022100005613DA8411122C42E848395E50006C6C0
:10222000F928FD570357C400631BF500FD77FD1720
:10223000F98F2316F400B240224441018280856761
:10224000D98F2316F40068C8FDB78395E50005A86B
:10225000411122C42A842E85B285368623A8018E98
:1022600006C6EF50D030FD576317F5009387018FF6
:102270009C4391C31CC0B240224441018280411161
:1022800022C42A842E8523A8018E06C6EF50D01BB7
:10229000FD576317F5009387018F9C4391C31CC0C2
:1022A000B240224441018280411122C42A842E85F9
:1022B000B28523A8018E06C6EF50301BFD57631769
:1022C000F5009387018F9C4391C31CC0B240224408
:1022D00041018280411122C42A842E8523A8018EC7
:1022E00006C6EF50F01AFD576317F5009387018F6C
:1022F0009C4391C31CC0B2402244410182804111E1
:1023000022C42A842E85B285368623A8018E06C66D
:10231000EF50101AFD576317F5009387018F9C4308
:1023200091C31CC0B24022444101828093F5F50F55
:102330002A966314C5000145828083470500E38D1A
:10234000B7FE0505FDB782808280797156CA9C4927
:10235000BA8A984522D426D24ECE52CC06D64AD03E
:102360005AC85EC6AA892E84B284368A63D3E7002F
:10237000BA879CC00347340419C385079CC01C401E
:1023800093F7070281C79C4089079CC0032904007A
:1023900013796900631A0900130B9401FD5B5C4417
:1023A0009840998F634CF9041C408346340493F79A
:1023B0000702B336D000A5EB13063404D2854E8550
:1023C000829AFD576303F5041C4011469840998B8F
:1023D000544481446397C700B384E64063D3040048
:1023E00081441C4418486354F700998FBE940149F6
:1023F00069047D5B63982405014509A885465A86D2
:10240000D2854E85829A631E75017D55B250225445
:1024100092540259F249624AD24A424BB24B456148
:1024200082800509ADBF3307D40013060003A30162
:10243000C7040347540493871600A2978906A38113
:10244000E7049DBF85462286D2854E85829AE30E9B
:1024500065FB050945B7797122D426D24AD04ECE04
:1024600006D652CC56CA5AC8B68983C68501930788
:10247000E0063289AA842E84138635046380F61E12
:1024800063E2D706930730066382F60A63EDD7004E
:10249000638A061E930780056386F616930A240452
:1024A0002301D40469A8930740066386F6009307C6
:1024B0009006E395F6FE1C40084393F60708930543
:1024C0004500C1C21C410CC363D807001307D002EA
:1024D000B307F040A301E40497E6FFFF93860603E9
:1024E000294765A0930730076382F61A63EFD70088
:1024F0009307F006638FF60493070007E390F6FA5C
:102500009C4193E707029CC109A893075007638287
:10251000F60493078007E393F6F893078007A30276
:10252000F40497E6FFFF9386A6FFDDA01C43938A81
:102530002504938647009C4314C32381F5048547F3
:10254000ADA293F607041C410CC3BDDEC207C187D0
:10255000A5BF0C401C4313F805081385470063050D
:10256000080008C39C4339A093F5050408C3FDD9AE
:1025700083D707001307F006638AE60C97E6FFFF90
:102580009386C6F82947A30104044C400CC463C5D4
:10259000050008406D9908C099E3B28A91CDB28ACE
:1025A000B3F5E702FD1AB69583C505002380BA008E
:1025B000B3D5E70263F2E70AA147631EF7001C40A8
:1025C000858B91CB58401C4863C7E70093070003F5
:1025D000A38FFAFEFD1A3306564110C84E87CA86ED
:1025E0007000A285268595337D5A6314450D7D556F
:1025F000B250225492540259F249624AD24A424B92
:1026000045618280A382D50497E6FFFF938606F09A
:102610000C40084313F805081C411105630008022B
:1026200008C313F7150001C793E505020CC0414725
:10263000B9FB0C4093F5F5FD0CC0B1B713F80504D8
:1026400008C3E30008FEC207C183E1BF97E6FFFFAE
:102650009386C6EB214705BFAE8799B794411C43CB
:10266000CC4913F80608138547006306080008C321
:102670009C438CC301A808C393F606049C43F5DA77
:102680002390B70023280400B28A89BF1C43D0419D
:1026900081459386470014C383AA07005685793184
:1026A00001C53305554148C05C401CC8A301040462
:1026B00035B714485686CA8526858299E30945F3BD
:1026C0001C40898B8DE7B2474844E353F5F23E85C1
:1026D00005B785465686CA8526858299E30965F140
:1026E000050A5C443247998FE345FAFEE9BF014A87
:1026F000930A94017D5BF5B7411122C42A842E858B
:10270000B285368623A8018E06C6EF50005DFD57C0
:102710006317F5009387018F9C4391C31CC0B2409F
:10272000224441018280011122CE00102326A4FE02
:102730000327C4FE938701816315F700B7070002E2
:1027400011A081473E85724405618280011122CE2D
:1027500000102326A4FE0327C4FE9387018163147F
:10276000F700894711A081473E8572440561828048
:10277000011122CE00102326A4FE2324B4FE8327B9
:1027800084FE91E7B70700809387070921A80327F4
:1027900084FE85476317F700B70700809387070912
:1027A00011A081473E85724405618280011122CECD
:1027B00000102326A4FE2324B4FE832784FE99E37D
:1027C0008D4709A8032784FE85476314F7009D47BA
:1027D00011A081473E857244056182805D7186C685
:1027E000A2C4CAC2CEC052DE56DC5ADA5ED862D665
:1027F00066D48008232EA4FA8327C4FB3E852537A0
:102800002326A4FC0327C4FCB167F117BA979C43A5
:102810002324F4FC0327C4FCB167E117BA979C4357
:102820002322F4FC0327C4FCB167F117BA979C4339
:10283000032784FCE318F7FC832784FC3E8C814C3F
:1028400093190C000149832744FC3E8A814A336B6B
:102850004901B3EB5901DA875E883E85C285B640EF
:10286000264416498649725AE25A525BC25B325C70
:10287000A25C61618280797106D622D44AD24ED0A0
:102880000018232EA4FC232CB4FC2328C4FC232AE8
:10289000D4FC8327C4FD2326F4FE8327C4FE3E8593
:1028A00059352324A4FE832784FD8E073E87832782
:1028B00084FE3E9791679107BA973E87FD571CC3E8
:1028C000832784FD8E073E87832784FE3E9791678A
:1028D000BA973E87832704FD1CC3832744FD13D981
:1028E00007008149832784FD8E073E87832784FE66
:1028F0003E9791679107BA974A8798C381473E856B
:10290000B25022541259825945618280011106CE7B
:1029100022CC0010232604FEF32740F12326F4FEE8
:102920008327C4FE3E85EF40D0622324A4FE032506
:1029300084FEEF40B05FAA873E85F24062440561A5
:102940008280397106DE22DC80002326A4FC032568
:10295000C4FCED3B2324A4FE8327C4FC2322F4FE05
:10296000832744FEDC43A9EF232604FE81A08325B0
:10297000C4FE0325C4FCED3B2320A4FE8325C4FE36
:102980000325C4FC2535232EA4FC832704FE9C4389
:10299000DC4F8326C4FC01468325C4FD032504FEC9
:1029A00082978327C4FE85072326F4FE0327C4FEEF
:1029B000832784FEE34DF7FA832744FE0547D8C3F7
:1029C0000100F250625421618280397106DE22DCFE
:1029D00080002326A4FC2324B4FC2322C4FC23204F
:1029E000D4FCFD572326F4FEEF1000472320A4FE5D
:1029F000232404FE213F232EA4FC0325C4FCB93369
:102A0000232CA4FC032704FE85476308F7008327D3
:102A100004FE81C78327C4FE49A0232204FE91A09F
:102A2000832544FE0325C4FC5133232AA4FC8325BB
:102A300044FE0325C4FC2D3B2324A4FE0327C4FD30
:102A4000832784FE6318F700032784FC832744FD53
:102A50006300F702232404FE832744FE8507232214
:102A6000F4FE032744FE832784FDE34BF7FA11A00D
:102A70000100832784FE85C3832784FE9C43DC4FAB
:102A8000832604FC032644FC832584FC032584FE62
:102A900082972326A4FE8327C4FE3E85F25062540B
:102AA00021618280797122D60018232EA4FC232C68
:102AB000B4FC232AC4FC2328D4FCFD572326F4FEAF
:102AC0008327C4FE3E85325445618280011106CEC3
:102AD00022CC00102326A4FEEF100038AA873E85E2
:102AE000F240624405618280797106D622D40018D2
:102AF000232EA4FC232CB4FCFD572326F4FE3935E9
:102B00002324A4FE832784FE95C3032784FD8547E1
:102B100063E0E702832784FE9C43DC43832584FD36
:102B2000032584FE82972326A4FE21A0010011A084
:102B300001008327C4FE3E85B25022544561828045
:102B4000397106DE22DC80002326A4FC2324B4FC99
:102B5000FD572326F4FE832784FCC9C7232404FEE3
:102B600075332320A4FE0325C4FCCD36232EA4FCFC
:102B7000232204FE91A0832544FE0325C4FC3D319D
:102B8000232CA4FC832544FE0325C4FCD536232432
:102B9000A4FE032704FE832784FE6318F70003279F
:102BA00084FC832784FD6300F702232404FE83272B
:102BB00044FE85072322F4FE032744FE8327C4FD39
:102BC000E34BF7FA11A00100832784FE81CF83270E
:102BD00084FE9C43DC53832584FC032584FE82977A
:102BE0002326A4FE8327C4FE3E85F2506254216151
:102BF0008280397106DE22DC80002326A4FC232497
:102C0000B4FCFD572326F4FE832784FCC9C7232484
:102C100004FEED392320A4FE0325C4FC053E232E2B
:102C2000A4FC232204FE91A0832544FE0325C4FCBA
:102C3000B53E232CA4FC832544FE0325C4FC0D3E95
:102C40002324A4FE032704FE832784FE6318F700D1
:102C5000032784FC832784FD6300F702232404FEFA
:102C6000832744FE85072322F4FE032744FE83279F
:102C7000C4FDE34BF7FA11A00100832784FE81CF46
:102C8000832784FE9C439C57832584FC032584FE74
:102C900082972326A4FE8327C4FE3E85F250625409
:102CA00021618280797106D622D40018232EA4FCDB
:102CB000232CB4FC232AC4FCFD572326F4FE8327CF
:102CC000C4FD2324F4FE0325C4FDEFF0DFA5232279
:102CD000A4FE032784FD89476308F704032784FDC6
:102CE000894763C8E700032784FD8547630EF70023
:102CF000E9A8032784FD8D47630CF704032784FDAF
:102D000091476308F708D1A0832744FDC5CB03256D
:102D100084FEE934AA872E88032744FD1CC323229E
:102D20000701232604FE59A8832744FDD1CB83271E
:102D300044FD9C432320F4FE832704FE8A073E873C
:102D4000832744FEBA9723A00700232604FE8DA8FC
:102D5000832744FDA5CB832744FD9C432320F4FE19
:102D6000832704FE8A073E87832744FEBA973E875F
:102D700085471CC30F008004832704FE8A073E8713
:102D8000832744FEBA979C432326F4FE232604FEA1
:102D900015A8232604FE832744FD9DC7832744FDF1
:102DA0009C432320F4FE832704FE8A073E87832763
:102DB00044FEBA979C432326F4FE39A0010031A0BB
:102DC000010021A0010011A001008327C4FE3E855F
:102DD000B250225445618280797106D622D40018FF
:102DE000232EA4FC232CB4FCEF409019AA872326A1
:102DF000F4FE9307C4FE3E8689450325C4FD5D3578
:102E0000AA873E85B250225445618280797106D6E8
:102E100022D40018232EA4FC232CB4FCEF4050161F
:102E2000AA872326F4FE9307C4FE3E868D4503251C
:102E3000C4FD8D3DAA873E85B250225445618280F3
:102E4000011122CE00102326A4FE0327C4FE93877F
:102E500081816314F700814711A0FD573E857244BC
:102E600005618280011122CE00102326A4FE0327D3
:102E7000C4FE938781816317F700B727F400938717
:102E8000074011A081473E8572440561828001118F
:102E900022CE00102326A4FE0327C4FE938781813F
:102EA0006317F700B70700809387070911A08147D0
:102EB0003E85724405618280011122CE00102326D6
:102EC000A4FE0327C4FE938781816314F700814722
:102ED00011A081473E85724405618280011122CE96
:102EE00000102326A4FE8327C4FE634CF000B7170E
:102EF00000800327C4FE0A07938707ACBA979C4358
:102F000011A081473E85724405618280011122CE65
:102F10000010F32740F12326F4FE8327C4FE3E85EC
:102F2000724405618280011122CE0010A147F3A7EF
:102F300007302326F4FE01007244056182800111EE
:102F400022CE0010A147F3B707302326F4FE01007C
:102F5000724405618280011122CE0010A147F3A7BF
:102F600047302326F4FE010072440561828001117E
:102F700022CE0010A147F3B747302326F4FE01000C
:102F8000724405618280011122CE0010930700086F
:102F9000F3A747302326F4FE0100724405618280C6
:102FA000011122CE001093070008F3B74730232603
:102FB000F4FE0100724405618280011122CE0010EE
:102FC000856793870780F3A747302326F4FE010027
:102FD000724405618280011122CE001085679387BB
:102FE0000780F3B747302326F4FE010072440561E1
:102FF0008280797122D60018232EA4FC8327C4FD79
:103000000547B317F7002326F4FE8327C4FEF3A772
:1030100047302324F4FE01003254456182807971E7
:1030200022D60018232EA4FC8327C4FD0547B3171E
:10303000F7002326F4FE8327C4FEF3B7473023248A
:10304000F4FE0100325445618280011106CE22CC8B
:1030500000102326A4FE2324B4FE13054006EF40EF
:10306000B005011106CE22CC00102326A4FE232495
:10307000B4FE1305800CEF4030045D7186C696C423
:103080009AC29EC022DE2ADC2EDA32D836D63AD454
:103090003ED242D046CE72CC76CA7AC87EC680086E
:1030A0001305C012EF4050011D7186CE96CC9ACA0E
:1030B0009EC8A2C6AAC4AEC2B2C036DE3ADC3EDAB0
:1030C00042D846D672D476D27AD07ECE80103D3D9C
:1030D0002A87B71700800A07938707ACBA979C43E3
:1030E0002326F4FA8327C4FA85C70325C4FA453397
:1030F0002324A4FA832784FA83A7070E2322F4FA51
:10310000832784FA83A7870D832544FA0D45829788
:103110000100F640E6425643C643364426459645EE
:103120000646F2566257D2574258B258225E925E15
:10313000025FF24F256173002030797106D622D4E8
:103140000018232EA4FC232CB4FCC9332A87B717FC
:1031500000800A07938707ACBA979C432326F4FEA6
:10316000F32720342324F4FE8327C4FE95C70325C8
:10317000C4FE313B2322A4FE832784FE93F7F73F4E
:10318000032744FE9387870E8A07BA979C438325BB
:10319000C4FD0325C4FE82970100B250225445614C
:1031A00082801D7186CE96CC9ACA9EC8A2C6AAC439
:1031B000AEC2B2C036DE3ADC3EDA42D846D672D46F
:1031C00076D27AD07ECE801091332A87B7170080CE
:1031D0000A07938707ACBA979C432326F4FA832700
:1031E000C4FA85C70325C4FA5D312324A4FA8327D2
:1031F00084FA83A707142322F4FA832784FA83A787
:103200008713832544FA1D4582970100F640E64264
:103210005643C6433644264596450646F2566257FF
:10322000D2574258B258225E925E025FF24F256139
:1032300073002030011122CE00102326A4FE232487
:10324000B4FE0100724405618280797106D622D4F1
:103250000018232EA4FC232CB4FC4D39AA873E85EC
:10326000B5392326A4FE0325C4FEEF1040292320F0
:10327000A4FE2322B4FE832704FE032844FEA945AE
:103280000146B386B70036853335F5003307C800ED
:10329000B307E5003E87B6873A88BE854286032598
:1032A000C4FEEF10202C0100B250225445618280F0
:1032B000000000000000000000000000000000000E
:1032C00000000000000000000000000000000000FE
:1032D00000000000000000000000000000000000EE
:1032E00000000000000000000000000000000000DE
:1032F00000000000000000000000000000000000CE
:10330000197186DE96DC9ADA9ED8A2D6AAD4AED2FD
:10331000B2D0B6CEBACCBECAC2C8C6C6F2C4F6C215
:10332000FAC07EDE0001DD362A87B71700800A0763
:10333000938707ACBA979C432326F4FAF3272034EB
:103340002324F4FAF32710342322F4FAF327303439
:103350002320F4FAF3275030232EF4F88327C4FAFD
:10336000FDCB0325C4FAEFF09FB2232CA4F88327EA
:1033700084FA93F7F73F232AF4F8832784FA63DE6D
:10338000070A032744F9930700086312F70283270B
:1033900084F983A787392328F4F8832784F983A73E
:1033A0000739832504F9032544F982976DA0032783
:1033B00044F9AD4763D7E7008327C4F993F7F703D0
:1033C0009DEF832684F9032744F9BA878607BA97C5
:1033D0008E07B69783A787092328F4F8832684F9F4
:1033E000032744F9BA878607BA978E07B69783A74B
:1033F0000709832504F9032544F98297A9A883279F
:10340000C4F913F7F70389476317F704F3277030FC
:103410002326F4F8832784F983A7C70D2328F4F81B
:103420008327C4F89C432324F4F8832784F8832556
:1034300004F9032544F9829739A8032784F98327DF
:1034400044F99387870E8A07BA979C43832544F9EA
:103450000325C4FA8297F650E6525653C6533654A3
:10346000265596550656F6466647D6474648B64808
:10347000264E964E064FF25F096173002030000021
:10348000000000000000000000000000000000003C
:10349000000000000000000000000000000000002C
:1034A000000000000000000000000000000000001C
:1034B000000000000000000000000000000000000C
:1034C00000000000000000000000000000000000FC
:1034D00000000000000000000000000000000000EC
:1034E00000000000000000000000000000000000DC
:1034F00000000000000000001D7186CE96CC9ACA24
:103500009EC8A2C6AAC4AEC2B2C036DE3ADC3EDA5B
:1035100042D846D672D476D27AD07ECE8010EFF0E2
:10352000FF9E2A87B71700800A07938707ACBA97D0
:103530009C432326F4FA8327C4FA8DC70325C4FAD3
:10354000EFF0FF942324A4FA832784FA83A787212A
:103550002322F4FA832784FA83A70721832544FAD8
:10356000414582970100F640E6425643C643364441
:10357000264596450646F2566257D2574258B258EB
:10358000225E925E025FF24F2561730020301D7152
:1035900086CE96CC9ACA9EC8A2C6AAC4AEC2B2C0F3
:1035A00036DE3ADC3EDA42D846D672D476D27AD0CB
:1035B0007ECE8010EFF09F952A87B71700800A070C
:1035C000938707ACBA979C432326F4FA8327C4FA5F
:1035D0008DC70325C4FAEFF09F8B2324A4FA832719
:1035E00084FA83A707232322F4FA832784FA83A784
:1035F0008722832544FA454582970100F640E6423A
:103600005643C6433644264596450646F25662570B
:10361000D2574258B258225E925E025FF24F256145
:10362000730020301D7186CE96CC9ACA9EC8A2C661
:10363000AAC4AEC2B2C036DE3ADC3EDA42D846D6C2
:1036400072D476D27AD07ECE8010EFF03F8C2A876B
:10365000B71700800A07938707ACBA979C432326C5
:10366000F4FA8327C4FA8DC70325C4FAEFF03F822A
:103670002324A4FA832784FA83A787242322F4FA35
:10368000832784FA83A70724832544FA4945829730
:103690000100F640E6425643C64336442645964569
:1036A0000646F2566257D2574258B258225E925E90
:1036B000025FF24F2561730020301D7186CE96CCDB
:1036C0009ACA9EC8A2C6AAC4AEC2B2C036DE3ADC4E
:1036D0003EDA42D846D672D476D27AD07ECE8010E8
:1036E000EFF0DF822A87B71700800A07938707ACBD
:1036F000BA979C432326F4FA8327C4FA8DC703257F
:10370000C4FAEFF0CFF82324A4FA832784FA83A71E
:1037100007262322F4FA832784FA83A787258325A3
:1037200044FA4D4582970100F640E6425643C643AF
:103730003644264596450646F2566257D2574258B9
:10374000B258225E925E025FF24F25617300203014
:103750001D7186CE96CC9ACA9EC8A2C6AAC4AEC215
:10376000B2C036DE3ADC3EDA42D846D672D476D2E1
:103770007AD07ECE8010EFF06FF92A87B7170080DD
:103780000A07938707ACBA979C432326F4FA83274A
:10379000C4FA8DC70325C4FAEFF06FEF2324A4FA0F
:1037A000832784FA83A787272322F4FA832784FABE
:1037B00083A70727832544FA514582970100F640E5
:1037C000E6425643C6433644264596450646F256DB
:1037D0006257D2574258B258225E925E025FF24F51
:1037E0002561730020301D7186CE96CC9ACA9EC882
:1037F000A2C6AAC4AEC2B2C036DE3ADC3EDA42D8B5
:1038000046D672D476D27AD07ECE8010EFF00FF00A
:103810002A87B71700800A07938707ACBA979C439B
:103820002326F4FA8327C4FA8DC70325C4FAEFF0E0
:103830000FE62324A4FA832784FA83A707292322E7
:10384000F4FA832784FA83A78728832544FA554509
:1038500082970100F640E6425643C6433644264569
:1038600096450646F2566257D2574258B258225EE3
:10387000925E025FF24F2561730020301D7186CE8B
:1038800096CC9ACA9EC8A2C6AAC4AEC2B2C036DE40
:103890003ADC3EDA42D846D672D476D27AD07ECEA0
:1038A0008010EFF0AFE62A87B71700800A079387EA
:1038B00007ACBA979C432326F4FA8327C4FA8DC732
:1038C0000325C4FAEFF0AFDC2324A4FA832784FA9B
:1038D00083A7872A2322F4FA832784FA83A7072A57
:1038E000832544FA594582970100F640E642564343
:1038F000C6433644264596450646F2566257D25789
:103900004258B258225E925E025FF24F2561730008
:1039100020301D7186CE96CC9ACA9EC8A2C6AAC473
:10392000AEC2B2C036DE3ADC3EDA42D846D672D4F7
:1039300076D27AD07ECE8010EFF04FDD2A87B7178F
:1039400000800A07938707ACBA979C432326F4FAB2
:103950008327C4FA8DC70325C4FAEFF04FD323247D
:10396000A4FA832784FA83A7072C2322F4FA832757
:1039700084FA83A7872B832544FA5D45829701004B
:10398000F640E6425643C64336442645964506462B
:10399000F2566257D2574258B258225E925E025F88
:1039A000F24F2561730020301D7186CE96CC9ACAE5
:1039B0009EC8A2C6AAC4AEC2B2C036DE3ADC3EDAA7
:1039C00042D846D672D476D27AD07ECE8010EFF02E
:1039D000EFD32A87B71700800A07938707ACBA97F7
:1039E0009C432326F4FA8327C4FA8DC70325C4FA1F
:1039F000EFF0EFC92324A4FA832784FA83A7872D45
:103A00002322F4FA832784FA83A7072D832544FA17
:103A1000614582970100F640E6425643C64336446C
:103A2000264596450646F2566257D2574258B25836
:103A3000225E925E025FF24F2561730020301D719D
:103A400086CE96CC9ACA9EC8A2C6AAC4AEC2B2C03E
:103A500036DE3ADC3EDA42D846D672D476D27AD016
:103A60007ECE8010EFF08FCA2A87B71700800A0732
:103A7000938707ACBA979C432326F4FA8327C4FAAA
:103A80008DC70325C4FAEFF08FC02324A4FA83273F
:103A900084FA83A7072F2322F4FA832784FA83A7C3
:103AA000872E832544FA654582970100F640E64259
:103AB0005643C6433644264596450646F256625757
:103AC000D2574258B258225E925E025FF24F256191
:103AD000730020301D7186CE96CC9ACA9EC8A2C6AD
:103AE000AAC4AEC2B2C036DE3ADC3EDA42D846D60E
:103AF00072D476D27AD07ECE8010EFF02FC12A8792
:103B0000B71700800A07938707ACBA979C43232610
:103B1000F4FA8327C4FA8DC70325C4FAEFF02FB750
:103B20002324A4FA832784FA83A787302322F4FA74
:103B3000832784FA83A70730832544FA694582974F
:103B40000100F640E6425643C643364426459645B4
:103B50000646F2566257D2574258B258225E925EDB
:103B6000025FF24F2561730020301D7186CE96CC26
:103B70009ACA9EC8A2C6AAC4AEC2B2C036DE3ADC99
:103B80003EDA42D846D672D476D27AD07ECE801033
:103B9000EFF0CFB72A87B71700800A07938707ACE3
:103BA000BA979C432326F4FA8327C4FA8DC70325CA
:103BB000C4FAEFF0CFAD2324A4FA832784FA83A7B5
:103BC00007322322F4FA832784FA83A787318325D7
:103BD00044FA6D4582970100F640E6425643C643DB
:103BE0003644264596450646F2566257D257425805
:103BF000B258225E925E025FF24F25617300203060
:103C00001D7186CE96CC9ACA9EC8A2C6AAC4AEC260
:103C1000B2C036DE3ADC3EDA42D846D672D476D22C
:103C20007AD07ECE8010EFF06FAE2A87B717008073
:103C30000A07938707ACBA979C432326F4FA832795
:103C4000C4FA8DC70325C4FAEFF06FA42324A4FAA5
:103C5000832784FA83A787332322F4FA832784FAFD
:103C600083A70733832544FA714582970100F64004
:103C7000E6425643C6433644264596450646F25626
:103C80006257D2574258B258225E925E025FF24F9C
:103C90002561730020301D7186CE96CC9ACA9EC8CD
:103CA000A2C6AAC4AEC2B2C036DE3ADC3EDA42D800
:103CB00046D672D476D27AD07ECE8010EFF00FA5A1
:103CC0002A87B71700800A07938707ACBA979C43E7
:103CD0002326F4FA8327C4FA8DC70325C4FAEFF02C
:103CE0000F9B2324A4FA832784FA83A70735232272
:103CF000F4FA832784FA83A78734832544FA754529
:103D000082970100F640E6425643C64336442645B4
:103D100096450646F2566257D2574258B258225E2E
:103D2000925E025FF24F2561730020301D7186CED6
:103D300096CC9ACA9EC8A2C6AAC4AEC2B2C036DE8B
:103D40003ADC3EDA42D846D672D476D27AD07ECEEB
:103D50008010EFF0AF9B2A87B71700800A07938780
:103D600007ACBA979C432326F4FA8327C4FA8DC77D
:103D70000325C4FAEFF0AF912324A4FA832784FA31
:103D800083A787362322F4FA832784FA83A707368A
:103D9000832544FA794582970100F640E64256436E
:103DA000C6433644264596450646F2566257D257D4
:103DB0004258B258225E925E025FF24F2561730054
:103DC00020301D7186CE96CC9ACA9EC8A2C6AAC4BF
:103DD000AEC2B2C036DE3ADC3EDA42D846D672D443
:103DE00076D27AD07ECE8010EFF04F922A87B71726
:103DF00000800A07938707ACBA979C432326F4FAFE
:103E00008327C4FA8DC70325C4FAEFF04F88232413
:103E1000A4FA832784FA83A707382322F4FA832796
:103E200084FA83A78737832544FA7D45829701006A
:103E3000F640E6425643C643364426459645064676
:103E4000F2566257D2574258B258225E925E025FD3
:103E5000F24F256173002030011122CE0010F327AC
:103E600050302326F4FE8327C4FE93F7F70323265E
:103E7000F4FE0327C4FE8947630DF7000327C4FE41
:103E80008D47630AF7000327C4FE85476307F700E1
:103E900039A08D4731A0914721A0854711A08147C6
:103EA0003E85724405618280797122D60018232EE6
:103EB000A4FC232CB4FCF32750302326F4FE8327E4
:103EC000C4FE93F707FC2326F4FE832784FD2324F6
:103ED000F4FE0327C4FD914763E0E7068327C4FD92
:103EE00013972700B707012093874759BA979C4338
:103EF0008287832784FE739077308327C4FE93E7FD
:103F00002700739057300DA8832784FE7390773075
:103F10008327C4FE93E737007390573031A8832777
:103F200084FE93E717007390573039A0832784FEEF
:103F3000F19B73905730010001003254456182803B
:103F4000011122CE00102326A4FE0327C4FEAD4794
:103F50006302F7040327C4FEAD4763CDE7000327E0
:103F6000C4FE8D476308F7020327C4FE9D47630321
:103F7000F7021DA00327C4FEC147634FF7000327C4
:103F8000C4FEFD4763D8E7000327C4FE930700087B
:103F90006314F700854719A0010081473E857244EC
:103FA00005618280797106D622D40018232EA4FCE4
:103FB000232CB4FC232AC4FC232604FE8327C4FD3F
:103FC00099E3FD5749A8032784FDFD4763E0E7080F
:103FD000832784FD13972700B70701209387875A0B
:103FE000BA979C438287832744FD81C7EFE0BFF3E4
:103FF0008DA0EFE0DFF4B1A8832744FD81C7EFE097
:104000009FF581A8EFE0BFF6A9A0832744FD81C7F3
:10401000EFE07FF73DA8EFE0BFF825A8832744FD38
:1040200081C7EFE09FF935A0EFE0FFFA1DA08327DD
:1040300044FD99C7832784FD3E85EFE09FFB11A8CF
:10404000832784FD3E85EFE09FFD21A0FD572326B9
:10405000F4FE8327C4FE3E85B2502254456182801F
:10406000797122D60018232EA4FC232CB4FC232A19
:10407000C4FC8327C4FD2326F4FE032784FDAD473B
:1040800063C2E702832744FD91CF0327C4FE832741
:1040900084FD9387870E8A07BA97032744FD98C348
:1040A000814711A0FD573E85325445618280797168
:1040B00006D622D40018232EA4FC8327C4FD232275
:1040C000F4FE832744FEDC43DDEF232604FEB9A083
:1040D000832644FE0327C4FEBA878607BA978E0755
:1040E000B69723A80708832644FE0327C4FEBA8791
:1040F0008607BA978E07B69723AA0708832644FE39
:104100000327C4FEBA878607BA978E07B69723ACF3
:1041100007088327C4FE85072326F4FE0327C4FE71
:10412000FD47E3D7E7FA232404FE1DA0032744FE3E
:10413000832784FE9387870E8A07BA973737012033
:104140001307A70498C3832784FE85072324F4FE5E
:10415000032784FEAD47E3DBE7FCF3275030232041
:10416000F4FEB70701209387C713032704FE6318E3
:10417000F700B73701209385073001453533832792
:1041800044FE0547D8C30100B250225445618280E5
:10419000797106D622D40018232EA4FC232CB4FC5B
:1041A000232AC4FC2328D4FC232604FE8327C4FD31
:1041B0002324F4FE032584FD6133AA8799E3D557B0
:1041C00071AA032784FD930700086317F70069317C
:1041D000AA8799C3CD5759A2832744FDB9CF032796
:1041E00084FD93070008631FF700832784FE0327DD
:1041F00044FD23A8E738832784FE032704FD23AC6E
:10420000E73899AA832684FE032784FDBA878607A8
:10421000BA978E07B697032744FD23A8E70883269D
:1042200084FE032784FDBA878607BA978E07B69760
:10423000032704FD23ACE70805A2032784FDAD474F
:10424000630CF70C032784FDAD4763CDE70003271C
:1042500084FD8D476309F702032784FD9D476301B1
:10426000F706C5A8032784FDC1476344F70E03275B
:1042700084FDFD4763D2E70A032784FD9307000806
:10428000630DF706F9A0832684FE032784FDBA8711
:104290008607BA978E07B697373701201307A713FB
:1042A00023A8E708832684FE032784FDBA878607B0
:1042B000BA978E07B697032704FD23AAE70869A8D3
:1042C000832684FE032784FDBA878607BA978E0764
:1042D000B697373701201307A72423A8E7088326BA
:1042E00084FE032784FDBA878607BA978E07B697A0
:1042F000032704FD23AAE70885A0832784FE373718
:1043000001201307472323A8E738832784FE0327C8
:1043100004FD23ACE73889A0832684FE032784FDAF
:10432000BA878607BA978E07B697373701201307E3
:10433000270623A8E708832684FE032784FDBA877F
:104340008607BA978E07B697032704FD23AAE708C6
:1043500021A0D1572326F4FE8327C4FE3E85B25008
:10436000225445618280011106CE22CC0010232602
:10437000A4FE2324B4FE832784FE0546BE850325C0
:10438000C4FE0D31AA873E85F240624405618280F9
:10439000011106CE22CC00102326A4FE2324B4FE55
:1043A000832784FE0146BE850325C4FEE53EAA8719
:1043B0003E85F240624405618280011106CE22CC26
:1043C00000102326A4FEEFF03FA9AA873E85F24005
:1043D000624405618280011106CE22CC00102326A2
:1043E000A4FE2324B4FE832784FE99EBB737012073
:1043F00093850730032584FEEFF01FAB81470DA0A6
:10440000032784FE8547631CF700B7870120938547
:1044100007A8032584FEEFF03FA9814711A0FD57AF
:104420003E85F240624405618280011122CE001077
:104430002326A4FE2324B4FE2322C4FE81473E8506
:10444000724405618280397122DE80002326A4FC3B
:1044500001438143232464FE232674FE732500B8A0
:104460002322A4FE732500B02320A4FE732500B8E8
:10447000232EA4FC832844FE0325C4FDE390A8FE5C
:10448000032544FEAA8501461398050081470326AB
:1044900004FEB286014733E6D7002324C4FEB36787
:1044A000E8002326F4FE832784FE0328C4FE3E850D
:1044B000C285725421618280797106D622D44AD293
:1044C0004ED00018232EA4FC8327C4FD81E70149A8
:1044D000814921A80325C4FDEFE0DF982326A4FE2F
:1044E0008327C4FE3E89FD87BE89CA874E883E85E4
:1044F000C285B25022541259825945618280797125
:1045000006D622D40018232EA4FC8147014823207C
:10451000F4FE232204FF0325C4FDEFE05F9723266A
:10452000A4FE8327C4FE8DC78327C4FE83A7C713B9
:104530002324F4FE832784FE81CF832784FE9C43BB
:10454000F847930704FE3E868545032584FE0297BF
:10455000832704FE032844FE3E85C285B2502254C0
:1045600045618280797106D622D426D20018232E86
:10457000A4FC2328B4FC232AC4FCFD572326F4FE04
:104580000325C4FDEFE0BF902324A4FE832784FE0F
:104590008DCF832784FE83A7C7132322F4FE8327AE
:1045A00044FE85C7832744FE9C43A44B0325C4FDDA
:1045B000EFE01F89AA87032604FD832644FDBE85FC
:1045C000032544FE82942326A4FE8327C4FE3E8551
:1045D000B2502254925445618280011122CE0010C3
:1045E0002326A4FE938701813E8572440561828063
:1045F000011122CE00102326A4FE9D473E85724461
:1046000005618280011122CE00102326A4FE93872B
:1046100001813E85724405618280011122CE001025
:104620002326A4FE8D473E85724405618280797100
:1046300006D622D40018232EA4FC232CB4FCFD574C
:104640002326F4FE0325C4FDEFE07F842324A4FE8B
:10465000832784FE9DC7832784FE83A7C70D23225B
:10466000F4FE832744FE91CF832744FE9C43F84702
:10467000930784FD3E868D45032544FE029723263D
:10468000A4FE8327C4FE3E85B25022544561828039
:10469000797106D622D40018232EA4FC232CB4FC56
:1046A000FD572326F4FE0325C4FDEFE04FFE23242F
:1046B000A4FE832784FE9DC7832784FE83A7C70D9E
:1046C0002322F4FE832744FE91CF832744FE9C439C
:1046D000F847930784FD3E868945032544FE0297EB
:1046E0002326A4FE8327C4FE3E85B2502254456192
:1046F0008280797106D622D40018232EA4FC232CA4
:10470000B4FC232604FE0325C4FDEFE04FF8232468
:10471000A4FE832784FE9DC7832784FE83A7C70D3D
:104720002322F4FE832744FE91CF832744FE9C433B
:10473000F847930784FD3E869145032544FE029782
:104740002326A4FE8327C4FE3E85B2502254456131
:104750008280011106CE22CC00102326A4FE032560
:10476000C4FEEFE0CFF2AA873E85F24062440561C5
:104770008280797106D622D40018232EA4FC232C23
:10478000B4FC232AC4FC0325C4FDEFE04FF023262C
:10479000A4FE8327C4FE99CB032644FD832584FD14
:1047A0000325C4FEEFF0DF8BAA8711A0FD573E85DD
:1047B000B250225445618280011122CE001023267E
:1047C000A4FE2324B4FE832784FE83D7070013F7B7
:1047D00037008D476314F700914711A089473E8544
:1047E000724405618280797122D60018232EA4FCC0
:1047F000F32710342326F4FE8327C4FE3E8532546B
:1048000045618280011122CE00102326A4FE2324BC
:10481000B4FE832784FE7390173481473E8572442B
:1048200005618280011106CE22CC00102326A4FE51
:104830000325C4FEEFE04FE8AA873E85F2406244BC
:1048400005618280011122CE00102326A4FE0327D9
:10485000C4FEB7070080938707466315F700B707C4
:10486000000C11A081473E857244056182800111D0
:1048700022CE00102326A4FE0327C4FEB707008023
:10488000938707466315F7009307500311A08147EC
:104890003E85724405618280011122CE00102326DC
:1048A000A4FE0327C4FEB70700809387074663145E
:1048B000F7009D4711A081473E85724405618280C3
:1048C000011122CE00102326A4FE2324B4FE832748
:1048D00084FE91E7B70700809387070911A08147FD
:1048E0003E85724405618280011122CE001023268C
:1048F000A4FE2324B4FE832784FE99E3AD4711A0D0
:1049000081473E85724405618280011122CE0010EC
:104910002326A4FE8327C4FE99E3814711A0FD57F7
:104920003E85724405618280797106D622D40018D2
:10493000232EA4FC232CB4FC0325C4FD21372326FD
:10494000A4FE832784FD1397C7008327C4FE3E97E8
:10495000B70720009107BA979C433E85B250225476
:1049600045618280797106D622D40018232EA4FCDA
:10497000232CB4FC232AC4FC0325C4FDE1352326E3
:10498000A4FE832784FD1397C7008327C4FE3E97A8
:10499000B70720009107BA973E87832744FD1CC3C1
:1049A0000100B250225445618280797106D622D42A
:1049B0000018232EA4FC232CB4FC232AC4FC0325BA
:1049C000C4FD49352326A4FE832784FD1397C70021
:1049D0008327C4FE3E97B7072000BA973E878327F8
:1049E00044FD1CC381473E85B250225445618280FC
:1049F000797106D622D40018232EA4FC232CB4FCF3
:104A00000325C4FD81352326A4FE832784FD139747
:104A1000C7008327C4FE3E97B7072000BA979C4380
:104A20003E85B250225445618280797106D622D4E7
:104A30000018232EA4FC232CB4FC232AC4FC032539
:104A4000C4FD09352326A4FE0325C4FDB135AA877C
:104A50002324F4FE832784FE85C7032744FD832790
:104A600084FE637FF700832784FD8A073E878327C0
:104A7000C4FEBA973E87832744FD1CC3814711A01B
:104A8000FD573E85B250225445618280797106D629
:104A900022D40018232EA4FC232CB4FC0325C4FD2F
:104AA00055332326A4FE832784FD8A073E87832768
:104AB000C4FEBA979C433E85B25022544561828021
:104AC000797106D622D40018232EA4FC232CB4FC22
:104AD000232AC4FC2328D4FC0325C4FDA5332326A4
:104AE000A4FE832784FD139777008327C4FEBA971B
:104AF000032744FD15870A073E978967BA979C43A9
:104B00002324F4FE832704FD81CF832744FDFD8BFE
:104B10000547B317F7003E87832784FED98F29A85E
:104B2000832744FDFD8B0547B317F70093C7F7FFB5
:104B30003E87832784FEF98F032784FD9316770031
:104B40000327C4FE3697832644FD95868A06BA96C7
:104B5000096736971CC381473E85B2502254456190
:104B60008280011106CE22CC00102326A4FE23242D
:104B7000B4FE1305C012EF203054797106D622D44A
:104B80000018232EA4FC232CB4FC832784FD2326A9
:104B9000F4FEEFE0AFB7AA873E85853B2324A4FE51
:104BA000832584FE0325C4FE41332322A4FE03256E
:104BB000C4FE7539AA872320F4FE032744FE832709
:104BC00004FE6372F7040327C4FE832744FE8A07AA
:104BD000BA979C478DCB0327C4FE832744FE8A07E0
:104BE000BA9703A88700032644FE8326C4FE032742
:104BF00044FEBA878607BA978E07B69783A7070F32
:104C0000BE8532850298032644FE832584FE032553
:104C1000C4FE893B0100B250225445618280397143
:104C200006DE22DC80002326A4FC8327C4FC23228A
:104C3000F4FE832744FEDC4363970712232604FE19
:104C400019AA0325C4FCEFF09FC22320A4FE8325EC
:104C5000C4FE0325C4FCAD31232EA4FC8325C4FE71
:104C60000325C4FC5131232CA4FC8327C4FD9C43A1
:104C70009C430325C4FD8297232404FE85A8814616
:104C8000032684FE8325C4FE032544FE153D032729
:104C900084FE832704FE6356F7040146832584FEC1
:104CA0000325C4FC5933032744FE832784FE8A0767
:104CB000BA9723A40700832644FE032784FEBA87FD
:104CC0008607BA978E07B69723A6070E832644FE5B
:104CD000032784FEBA878607BA978E07B69723A85C
:104CE000070E832784FE85072324F4FE032784FE12
:104CF0009307F03FE3D5E7F801468325C4FE03257B
:104D0000C4FC65318327C4FD9C43DC4F832644FEED
:104D10000146832584FD0325C4FD82978327C4FDB6
:104D20009C43D84F832644FEB75701201386A7B76C
:104D3000832584FD0325C4FD02978327C4FD9C437E
:104D4000DC53832584FD0325C4FD82978327C4FE9D
:104D500085072326F4FE8327C4FEE354F0EE832761
:104D600044FE0547D8C30100F2506254216182809D
:104D7000797106D622D40018232EA4FC232CB4FC6F
:104D8000232AC4FC2328D4FC8327C4FD2326F4FE55
:104D90000325C4FDEFF0BFAD2A87832784FD63C4DC
:104DA000E700FD5751A0832744FD9DCF0946832589
:104DB00084FD0325C4FDEFF05FC70327C4FE8327EE
:104DC00084FD8A07BA97032744FD98C78326C4FE4B
:104DD000032784FDBA878607BA978E07B6970327FD
:104DE00004FD23A8E70E81A00546832584FD032545
:104DF000C4FDEFF09FC30327C4FE832784FD8A0709
:104E0000BA9737570120130727B698C78326C4FEE1
:104E1000032784FDBA878607BA978E07B6970327BC
:104E200004FD23A6E70E81473E85B250225445611A
:104E30008280797106D622D40018232EA4FC232C5C
:104E4000B4FC8327C4FD2326F4FE0325C4FDEFF044
:104E50001FA22A87832784FD63C4E700FD5729A882
:104E6000EFE0CF8AAA878546032684FDBE85032509
:104E7000C4FEEFF0FFC481473E85B2502254456125
:104E80008280797106D622D40018232EA4FC232C0C
:104E9000B4FC8327C4FD2326F4FE0325C4FDEFF0F4
:104EA0001F9D2A87832784FD63C4E700FD5729A837
:104EB000EFE0CF85AA878146032684FDBE850325C2
:104EC000C4FEEFF0FFBF81473E85B25022544561DA
:104ED0008280011106CE22CC00102326A4FE2324BA
:104EE000B4FEEFE0AF82AA87032684FEBE850325C9
:104EF000C4FEEFF09FABAA873E85F2406244056195
:104F00008280011106CE22CC00102326A4FEEFD011
:104F1000FFFFAA87BE850325C4FEEFF07FADAA87F9
:104F20003E85F240624405618280797106D622D4C2
:104F30000018232EA4FC232CB4FC232AC4FC232217
:104F400004FE8327C4FD2324F4FE0325C4FDEFF0F3
:104F50001F922A87832744FD63C8E700FD57232259
:104F6000F4FE832744FE99A8232604FE99A08327F4
:104F7000C4FE95C78546032644FD8325C4FE03254C
:104F800084FEEFF0FFB3AA8713F717008327C4FE50
:104F90003317F700832744FED98F2322F4FE83279B
:104FA000C4FE85072326F4FE832784FD8583232CF6
:104FB000F4FC832784FDC5FF832744FE3E85B25061
:104FC000225445618280797106D622D40018232E9E
:104FD000A4FC232CB4FC232AC4FC232204FE832734
:104FE000C4FD2324F4FE0325C4FDEFF05F882A8767
:104FF000832744FD63C8E700FD572322F4FE83277F
:1050000044FE99A8232604FE99A08327C4FE95C7D1
:105010008146032644FD8325C4FE032584FEEFF06C
:105020003FAAAA8713F717008327C4FE3317F70098
:10503000832744FED98F2322F4FE8327C4FE8507ED
:105040002326F4FE832784FD8583232CF4FC832709
:1050500084FDC5FF832744FE3E85B250225445613E
:105060008280797106D622D40018232EA4FC232C2A
:10507000B4FC232AC4FC232404FE232604FE91A0AE
:105080008327C4FE8DC7032644FD8325C4FE032564
:10509000C4FDEFF09F91AA8713F717008327C4FE82
:1050A0003317F700832784FED98F2324F4FE832748
:1050B000C4FE85072326F4FE832784FD8583232CE5
:1050C000F4FC832784FDCDFF832784FE3E85B25008
:1050D000225445618280011106CE22CC0010232685
:1050E000A4FE2324B4FE832584FE0325C4FEEFF032
:1050F0003F9081473E85F240624405618280011104
:1051000022CE00102326A4FEB70700809387C7068F
:105110003E85724405618280011122CE0010232653
:10512000A4FE938741823E8572440561828001110D
:1051300022CE00102326A4FE81473E8572440561DD
:105140008280411122C60008938781833E853244C4
:1051500041018280397106DE22DC80002326A4FC16
:105160000325C4FC693F2326A4FE0325C4FCC137E4
:105170002324A4FE0325C4FC45372322A4FED137F3
:105180002320A4FE832704FE9C43832584FE03255D
:1051900044FE8297232EA4FC0327C4FDB7070040DA
:1051A000F98F99E3FD5725A08327C4FD63C4070049
:1051B000FD5731A80325C4FEEF20A044AA873E87EF
:1051C0008327C4FD93F7F7038507B357F7023E859E
:1051D000F250625421618280011106CE22CC00106F
:1051E0002326A4FE2324B4FE0325C4FEA537AA87E4
:1051F0003E85F240624405618280011122CE00109A
:105200002326A4FEB7070080938707063E857244D5
:1052100005618280011122CE00102326A4FE93870F
:1052200041823E85724405618280011122CE0010C8
:105230002326A4FE91473E85724405618280411178
:1052400022C60008938781833E85324441018280D3
:10525000397106DE22DC80002326A4FC0325C4FC71
:10526000693F2326A4FE0325C4FCC1372324A4FEE2
:105270000325C4FC45372322A4FED1372320A4FEF6
:10528000832704FE9C43832584FE032544FE8297E6
:10529000232EA4FC0327C4FDB7070040F98F99E330
:1052A000FD5721A88327C4FD63C40700FD5731A023
:1052B0000325C4FEEF20E034AA873E85F2506254F5
:1052C00021618280011106CE22CC00102326A4FE8B
:1052D0002324B4FE0325C4FEA53FAA873E85F240E1
:1052E000624405618280011122CE00102326A4FEB3
:1052F000B71700809387C7A93E85724405618280F5
:10530000011122CE00102326A4FEB7170080938738
:1053100087AA3E85724405618280011122CE001069
:105320002326A4FE938741823E85724405618280D4
:10533000011122CE00102326A4FEB1473E857244FF
:1053400005618280411122C60008938741823E8513
:10535000324441018280411122C60008A1473E85A6
:10536000324441018280411122C60008B727F4006F
:10537000938707403E85324441018280411122C615
:105380000008B78700103E853244410182804111F8
:1053900022C60008938781833E8532444101828082
:1053A000011122CE00102326A4FE2324B4FE83275D
:1053B00084FE9C470327C4FE6369F700832784FEAD
:1053C000DC470327C4FE63F4E700FD5729A88327C1
:1053D00084FE98438327C4FE3307F702832784FEA5
:1053E000DC43B357F7023E85724405618280397110
:1053F00006DE22DC80002326A4FC8327C4FC3E8535
:1054000001372326A4FE85372324A4FEA9372322AF
:10541000A4FEAD372320A4FE032704FE832744FE09
:10542000BA97232EF4FC8327C4FCDC433E85EF208F
:1054300000148327C4FD9843C167F98F91CB83275C
:10544000C4FD9843C177FD177D8F8327C4FD98C3A2
:105450008327C4FE91CB8327C4FD9843B70702007E
:105460005D8F8327C4FD98C38327C4FC9C43D84326
:105470008327C4FC832584FE3E8502978327C4FCD2
:105480009C473E85EF20A00E0100F250625421613E
:1054900082801D7186CEA2CC80102326A4FA03251B
:1054A000C4FAB93D2326A4FE0325C4FA2D3D2324C6
:1054B000A4FE0325C4FA45352322A4FE0325C4FA1D
:1054C00051352320A4FE0325C4FA9D35232EA4FCC8
:1054D0000325C4FA9935232CA4FC553D232AA4FCAA
:1054E000832744FD9C43832544FE032504FE8297C5
:1054F0002328A4FC832744FD9C438325C4FD032566
:1055000084FD82972326A4FC032704FDC1677D8FB9
:10551000C1676378F700032584FEEF20800EAA8719
:10552000E1A8032704FDB70702007D8FB70702003B
:105530006365F7008327C4FE19A0832784FE3E8598
:10554000EF20200C2324A4FC032704FDB70704004C
:105550007D8FB70704006365F700832784FC69A883
:10556000832704FD9D8B85072322F4FC832704FDFC
:1055700093F7073F9183850786072320F4FC0327D1
:1055800004FD8567938707C07D8F9307F03F63E431
:10559000E700FD5795A0032704FD8567938707C0A3
:1055A000F98FA9830547B317F700232EF4FA0327D1
:1055B00084FC832744FC3347F702832704FC33072A
:1055C000F7028327C4FBB347F702232CF4FA83279F
:1055D000C4FC13F707109307F00F63F5E700832768
:1055E00084FB19A8032784FB8327C4FC93F7F703E4
:1055F00085078607B357F7023E85F6406644256166
:105600008280397106DE22DC80002326A4FC23245C
:10561000B4FCFD572326F4FEB707008093C7F7FFBD
:105620002324F4FE930730042322F4FEB5A083263E
:10563000C4FC832744FE13975700B70701209387C4
:105640004773BA97BE853685EFF09FD52320A4FE19
:10565000032704FEFD57630CF702032704FE83278C
:1056600084FC1D8F9357F7413D8FB307F740232EDE
:10567000F4FC0327C4FD832784FE635AF7008327C5
:1056800044FE2326F4FE8327C4FD2324F4FE83274F
:1056900044FEFD172322F4FE832744FEE3D907F8D6
:1056A0008327C4FE3E85F250625421618280797165
:1056B00006D622D40018232EA4FC232CB4FC232AC3
:1056C000C4FC8327C4FD9C4313F787FF8327C4FDD5
:1056D00098C38327C4FD9843832744FD9C4B9D8B2F
:1056E0005D8F8327C4FD98C38327C4FD9C4313F7B4
:1056F000F7C08327C4FD98C38327C4FD984383273D
:1057000044FDDC4B920793F7073F5D8F8327C4FD71
:1057100098C38327C4FD9843FD779387F73F7D8F18
:105720008327C4FD98C38327C4FD9843832744FD82
:105730009C4F9396A7008567938707C0F58F5D8F71
:105740008327C4FD98C3832744FDDC4F63DB070236
:10575000832784FD9C4313E70710832784FD98C3A8
:10576000832784FD9C4313F707FC832784FD98C39C
:10577000832784FD9C4313E71700832784FD98C388
:105780002DA8832784FD9C4313F7F7EF832784FD1F
:1057900098C3832784FD9C4313F707FC832784FD6C
:1057A00098C3832784FD9843832744FDDC4F93F7F8
:1057B000F7035D8F832784FD98C38327C4FD984337
:1057C000B707FCFFFD177D8F8327C4FD98C39307A0
:1057D00004FE3E86854513850181EFD0AFCC83263C
:1057E00004FE032744FE91450146B387B6003E857B
:1057F0003335D5003308C700330705013A88232421
:10580000F4FE232604FF09A8930704FE3E8685457F
:1058100013850181EFD00FC9832704FE032844FEBE
:105820000327C4FEC286636BD7000327C4FEC2866B
:10583000E31CD7FC032784FEE378F7FC01008327F1
:10584000C4FD9C43E3DD07FE0100B25022544561D4
:1058500082805D7186C6A2C48008232EA4FA232C00
:10586000B4FA0325C4FBEFF0BFA92326A4FE032549
:10587000C4FBEFF05FA72324A4FE0325C4FBEFF0D5
:105880009FAD2322A4FE0325C4FBEFF07FAA2320B3
:10589000A4FEEFF0BFAE232EA4FC0327C4FD832794
:1058A00044FEBA97232CF4FC0327C4FD832704FE8F
:1058B000BA97232AF4FC832784FD9843C167F98FA4
:1058C00091CB832784FD9843C177FD177D8F832774
:1058D00084FD98C3832784FD9843B7070200F98F9E
:1058E00081C78327C4FE19A0832784FE3E85EF105D
:1058F00050512328A4FC032704FDBA878607BA97D2
:1059000013D7F7410D8BBA9789873E87832784FB8E
:1059100063CBE702032704FDBA878A07BA9713D738
:10592000F7410D8BBA9789873E87832784FB634CA9
:10593000F700832784FD9843B70704005D8F832712
:1059400084FD98C381A8832584FB032504FDEFF023
:105950005FCB2326A4FC0327C4FCFD576303F70297
:105960008327C4FC13975700B70701209387477319
:10597000BA973E86832544FD032584FDEFF03FD38F
:1059800011A8832784FD9843B70704005D8F832700
:1059900084FD98C3832784FD9843C1675D8F832767
:1059A00084FD98C30325C4FBEFF0BFAEAA873E85F4
:1059B000B640264461618280411122C60008B78743
:1059C00000103E85324441018280797106D622D48E
:1059D0000018232EA4FC232CB4FCF93FAA8723260D
:1059E000F4FE032784FD8327C4FEBA979C433E85BB
:1059F000B250225445618280797106D622D40018B3
:105A0000232EA4FC232CB4FC232AC4FC7537AA87BC
:105A10002326F4FE032784FD8327C4FEBA973E871E
:105A2000832744FD1CC33E85B250225445618280C9
:105A3000011122CE00102326A4FE0327C4FE938763
:105A400001826315F700B727011011A081473E8539
:105A5000724405618280011122CE00102326A4FE2B
:105A60000327C4FE938701826317F700B7070080FE
:105A70009387074611A081473E8572440561828065
:105A8000011122CE00102326A4FE2324B4FE0327F6
:105A9000C4FE938701826317F700832784FE99E38E
:105AA000A14715AE0327C4FE938701826319F7004F
:105AB000032784FE85476314F700A54729AE032713
:105AC000C4FE938701826319F700032784FE894788
:105AD0006314F700A94701A60327C4FE9387018238
:105AE0006319F700032784FE8D476314F700AD4761
:105AF000DDA40327C4FE938701826319F7000327FF
:105B000084FE91476314F700B147F1A40327C4FE54
:105B1000938701826319F700032784FE9547631476
