:020000042001D9
:100000009711FF5F9381012C970200009382820178
:100010007390523093021000638402007350107C7E
:10002000970200009382C211739052301701FFDFD4
:10003000130141FD63140100138101D0732540F1C8
:10004000814213030040137101FF6385A2001A91DE
:100050008502D5BF970000009380200863830000CD
:100060008290732540F181450146FD209700FFDF16
:10007000938040F96383000082909702000093828E
:10008000C2007390523003230000F5BF000000004F
:100090008280A14673B306309302400063C55500C9
:1000A0001376350011CA230005000505FD15E34749
:1000B000B0FE731003308280232005001105F11576
:1000C000E34EB0FC73100330828023200300110341
:1000D000E34D73FE828006849702FFDF938282F2F3
:1000E000638C02049702FFDF9382C2F1F32740F191
:1000F000A14673B006300A839703FFDF93838330F2
:100100008A9363037300D137639857021703FF5F25
:10011000130343EF9713FF5F9383C39F630373003E
:100120006D371703FFE71303E3ED9703FFE79383AF
:1001300063ED63037300513FA2808280F322203479
:1001400073231034F3233034D5BF411122C6000885
:10015000010032444101828006849711FF5F938140
:100160006116930200006311550E9792000093826E
:10017000E2521703FF5F1303E3E89713FF5F9383D4
:100180006399638C6200635A730003A502009102B5
:100190002320A3001103E34A73FE97120000938209
:1001A000E20F1703FFE71303E3E59703FFE79383EA
:1001B00063E5638C6200635A730003A50200910239
:1001C0002320A3001103E34A73FE0F1000009712CF
:1001D00000009382A20C1703FF5F1303A3E29703AF
:1001E000FF5F938323E2638C6200635A730003A56D
:1001F000020091022320A3001103E34A73FE0F10B3
:1002000000001713FF5F1303E3909383418F63573D
:100210007300232003001103E34D73FE1712FF5FE9
:100220001302428F11C2029617950000130545A7CD
:10023000EF80F022EF80102A179500001305C540CB
:10024000EF80F021EF90A03E0937FD5673B04630A5
:1002500073B04634F3271030372704007D8F09C769
:1002600073B0363073B02630370704007D8F19C362
:1002700073B006183707010013078702F98F89CB7F
:10028000F32700300967D98F73900730735030001F
:10029000F327103037072000F98F99C7F327003074
:1002A00093E7072073900730054597150000938565
:1002B00065FC17160000130626FC3120EF80901B0A
:1002C000A28082808280411106C2F32240F1130392
:1002D00000006385620073005010F5BFEF1040020C
:0602E00092404101828002
:0C02E800F4020120200301204A03012041
:1002F400011106CE22CC0010EF50906F2326A4FEED
:100304008327C4FE99C7B7170080138547ABEF5006
:10031400B0760100F240624405618280011106CE8C
:1003240022CC0010EF50D06C2326A4FE8325C4FEFB
:10033400B7170080138547ABEF80A0170100F24088
:10034400624405618280411106C622C40008F16737
:1003540093850720B71700801385C7A5EF80405108
:0A0364000100B240224441018280F2
:10037000493243206E6F7420617661696C61626CF2
:1003800065200000446174612072656164203D2035
:1003900025580A00494D55206D6F64756C652064C1
:1003A0006574656374656421000000004661696CD2
:1003B000656420746F2064657465637420494D55CD
:1003C000206D6F64756C652100000000494D55205B
:1003D000616363656C65726F20656E61626C6564F4
:1003E00021000000494D55206779726F20656E61CC
:1003F000626C65642100000053746174757320524F
:100400006567203D2025580A000000004779726F7B
:10041000205A204D5342203D2025580A000000005C
:100420004779726F205A204C5342203D2025580AAC
:10043000000000004779726F205A203D20252E369B
:10044000660A0000416363656C65726F2058204D39
:100450005342203D2025580A000000004163636597
:100460006C65726F2058204C5342203D2025580A5D
:1004700000000000416363656C65726F2058203D89
:1004800020252E36660A0000416363656C65726F35
:100490002059204D5342203D2025580A00000000DD
:1004A000416363656C65726F2059204C5342203D57
:1004B0002025580A00000000416363656C65726F77
:1004C0002059203D20252E36660A0000000000003D
:1004D000000000000080114006ED91AA46DF913F28
:1004E0000000000000408F4008AC1C5A643BAF3F46
:1004F00005A3923A019D2340000000000000000087
:1005000000000000000000000000000000000000EB
:1005100000000000000000000000000000000000DB
:1005200000000000000000000000000000000000CB
:1005300000000000000000000000000000000000BB
:1005400000000000000000000000000000000000AB
:100550000000000000000000232D302B20000000D0
:10056000686C4C00656667454647000030313233A1
:10057000343536373839414243444546000000009F
:100580003031323334353637383961626364656609
:100590000000000078290000C8280000CE280000D4
:1005A000C82800006A290000C8280000CE280000E2
:1005B00078290000782900006A290000CE28000070
:1005C000AE280000AE280000AE280000D2280000AF
:1005D000C22C0000C22C0000DA2C0000BC2C000051
:1005E000BC2C0000682D0000DA2C0000BC2C0000A0
:1005F000682D0000BC2C0000DA2C0000BA2C000092
:10060000BA2C0000BA2C0000682D00000001020284
:10061000030303030404040404040404050505059A
:100620000505050505050505050505050606060676
:10063000060606060606060606060606060606065A
:100640000606060606060606060606060707070746
:10065000070707070707070707070707070707072A
:10066000070707070707070707070707070707071A
:10067000070707070707070707070707070707070A
:1006800007070707070707070707070708080808F6
:1006900008080808080808080808080808080808DA
:1006A00008080808080808080808080808080808CA
:1006B00008080808080808080808080808080808BA
:1006C00008080808080808080808080808080808AA
:1006D000080808080808080808080808080808089A
:1006E000080808080808080808080808080808088A
:1006F000080808080808080808080808080808087A
:10070000080808080808080808080808D43701205D
:100710007A3901205E39012000000000000000004D
:100720006C3C0120A03C01205C38012036390120BE
:10073000D2390120843A01200000000000000000AE
:1007400000000000000000000000000000000000A9
:100750000000000000000000363B012008370120A7
:100760000000000000000000000000000000000089
:10077000AE4D0120A04D0120744D0120744D01208B
:100780008A4D0120684E0120CE4E0120CE4E012020
:100790007A4E0120CE4E0120CE4E0120CE4E0120B9
:1007A0008C4E0120CE4E0120CE4E0120CE4E012097
:1007B0009E4E0120CE4E0120CE4E0120CE4E012075
:1007C000CE4E0120B04E0120B04E0120B04E01208F
:1007D000B04E0120B04E0120B04E0120B04E01209D
:1007E000B04E0120B04E0120B04E0120B04E01208D
:1007F000B04E0120B04E0120B04E0120B04E01207D
:10080000B04E0120304F01205C52012040520120A7
:1008100000000000000000000000000000000000D8
:100820001250012000000000E85101201452012064
:1008300000000000000000000000000000000000B8
:1008400000000000000000000000000000000000A8
:10085000B052012000000000000000000000000075
:100860000000000000000000CC5201203E53012097
:1008700084530120EA530120605401207654012062
:100880008A540120A0540120B4540120165501209F
:1008900078550120D8550120F85501203E560120F9
:1008A0006C5601208A560120AA560120A65A012022
:1008B0000000000000000000000000000000000038
:1008C0000000000000000000FE5B012000000000AE
:1008D000C05C0120105D012000000000000000004D
:1008E000905D0120605D012012590120B058012067
:1008F00000000000000000000000000000000000F8
:10090000B85D0120545E0120F05E0120645F01208B
:100910000100000020000000001BB70000366E013F
:10092000010000001F000000030000003F00000065
:10093000010000002000000000366E01006CDC02A7
:10094000030000001F000000020000003F00000044
:100950000100000010000000808D5B00001BB7004C
:10096000000000001F000000030000003F00000026
:100970000100000010000000001BB70000366E01EF
:10098000010000001F000000020000003F00000006
:10099000010000001000000000366E01006CDC0257
:1009A000030000001F000000020000001F00000004
:1009B0000100000008000000808D5B00001BB700F4
:1009C000000000001F000000030000001F000000E6
:1009D0000100000008000000001BB70000366E0197
:1009E000010000001F000000020000001F000000C6
:1009F000010000000800000000366E01006CDC02FF
:100A0000030000001F000000020000000F000000B3
:100A10000100000004000000808D5B00001BB70097
:100A2000000000001F000000030000000F00000095
:100A30000100000004000000001BB70000366E013A
:100A4000010000001F000000020000000F00000075
:100A5000010000000400000000366E01006CDC02A2
:100A6000030000001F00000002000000070000005B
:100A70000100000002000000808D5B00001BB70039
:100A8000000000001F000000020000000F00000036
:100A90000100000002000000001BB70000366E01DC
:100AA000010000001F000000010000000F00000016
:100AB000010000000200000000366E01006CDC0244
:100AC000030000001F0000000100000007000000FC
:100AD0000200000001000000808D5B00001BB700D9
:100AE000000000001F0000000100000007000000DF
:100AF0000200000001000000001BB70000366E017C
:100B0000010000001F0000000100000003000000C1
:100B1000020000000100000000366E01006CDC02E3
:100B2000030000001F00000003000000FFFFFFFFA4
:100B30000400000001000000808D5B00001BB70076
:100B4000000000001F000000030000000000000083
:100B50000400000001000000001BB70000366E0119
:100B6000010000001F00000003000000FFFFFFFF66
:100B7000040000000100000000366E01006CDC0281
:100B8000030000001F00000002000000FFFFFFFF45
:100B90000600000001000000808D5B00AAC2A200D8
:100BA000000000002300000001000000020000001F
:100BB0000600000001000000AAC2A200001BB7004E
:100BC000000000001700000003000000FFFFFFFF0F
:100BD0000600000001000000001BB7000024F40024
:100BE000010000002F00000003000000FFFFFFFFD6
:100BF00006000000010000000024F40080A812019B
:100C0000010000001700000002000000FFFFFFFFCE
:100C1000060000000100000080A812015585450172
:100C2000020000002300000002000000FFFFFFFFA1
:100C30000800000001000000808D5B00001BB70071
:100C4000000000001F00000003000000FFFFFFFF86
:100C50000800000001000000001BB70000366E0114
:100C6000010000001F00000002000000FFFFFFFF66
:100C7000080000000100000000366E01006CDC027C
:100C8000030000001F00000001000000FFFFFFFF45
:100C90000A00000001000000808D5B00007C9200D3
:100CA000000000002700000003000000FFFFFFFF1E
:100CB0000A00000001000000007C9200001BB70049
:100CC000000000001300000002000000FFFFFFFF13
:100CD0000A00000001000000001BB70000F824011A
:100CE000010000002700000002000000FFFFFFFFDE
:100CF0000A0000000100000000F8240100366E0127
:100D0000010000001300000001000000FFFFFFFFD2
:100D10000A0000000100000000366E0100F04902E8
:100D2000030000002700000001000000FFFFFFFF9C
:100D30000C00000001000000808D5B0000127A00B2
:100D4000000000002F00000003000000FFFFFFFF75
:100D50000C0000000100000000127A00001BB70028
:100D6000000000001700000002000000FFFFFFFF6E
:100D70000C00000001000000001BB7000024F4007C
:100D8000010000002F00000002000000FFFFFFFF35
:100D90000C000000010000000024F40000366E0189
:100DA000010000001700000001000000FFFFFFFF2E
:100DB0000C0000000100000000366E0180C3C90174
:100DC000030000002F00000001000000FFFFFFFFF4
:100DD0000C0000000100000080C3C9010048E801C8
:100DE000030000002F00000001000000FFFFFFFFD4
:100DF0000E00000001000000808D5B00B6A16800BD
:100E0000000000003700000003000000FFFFFFFFAC
:100E10000E00000001000000B7A16800001BB70031
:100E2000000000001B00000002000000FFFFFFFFA9
:100E30000E00000001000000001BB7006D43D10050
:100E4000010000003700000002000000FFFFFFFF6C
:100E50000E000000010000006E43D10000366E015C
:100E6000010000001B00000001000000FFFFFFFF69
:100E70000E0000000100000000366E01DB86A201BA
:100E8000030000003700000001000000FFFFFFFF2B
:100E90001000000001000000808D5B00001BB70007
:100EA000000000001F00000002000000FFFFFFFF25
:100EB0001000000001000000001BB70000366E01AA
:100EC000010000001F00000001000000FFFFFFFF05
:100ED0001200000001000000808D5B00AAC2A20089
:100EE000000000002300000002000000FFFFFFFFE1
:100EF0001200000001000000ABC2A200001BB700FE
:100F0000000000001100000001000000FFFFFFFFD3
:100F10001200000001000000001BB70055854501CC
:100F2000010000002300000001000000FFFFFFFFA0
:100F30001400000001000000808D5B00007C920026
:100F4000000000002700000002000000FFFFFFFF7C
:100F50001400000001000000007C9200001BB7009C
:100F6000000000001300000001000000FFFFFFFF71
:100F70001400000001000000001BB70000F824016D
:100F8000010000002700000001000000FFFFFFFF3C
:100F90001600000001000000808D5B00E82A85003B
:100FA000000000002B00000002000000FFFFFFFF18
:100FB0001600000001000000E92A8500001BB700B0
:100FC000000000001500000001000000FFFFFFFF0F
:100FD0001600000001000000001BB700D1550A01F7
:100FE000010000002B00000001000000FFFFFFFFD8
:100FF0001800000001000000808D5B0000127A00E4
:10100000000000002F00000002000000FFFFFFFFB3
:10101000180000000100000000127A00001BB70059
:10102000000000001700000001000000FFFFFFFFAC
:101030001800000001000000001BB7000024F400AD
:10104000010000002F00000001000000FFFFFFFF73
:101050001A00000001000000808D5B0027AE7000C8
:10106000000000003300000002000000FFFFFFFF4F
:101070001A0000000100000028AE7000001BB7003D
:10108000000000001900000001000000FFFFFFFF4A
:101090001A00000001000000001BB7006658E100C4
:1010A000010000003300000001000000FFFFFFFF0F
:1010B0001C00000001000000808D5B00B6A16800EC
:1010C000000000003700000002000000FFFFFFFFEB
:1010D0001C00000001000000B7A16800001BB70061
:1010E000000000001B00000001000000FFFFFFFFE8
:1010F0001C00000001000000001BB7006D43D10080
:10110000010000003700000001000000FFFFFFFFAA
:101110001E00000001000000808D5B0000A861003F
:10112000000000003B00000002000000FFFFFFFF86
:101130001E0000000100000000A86100001BB700B5
:10114000000000001D00000001000000FFFFFFFF85
:101150001E00000001000000001BB7000050C3008B
:10116000010000003B00000001000000FFFFFFFF46
:101170002000000001000000808D5B00001BB70014
:10118000000000001F00000001000000FFFFFFFF43
:101190007C62012020630120E0660120826F012033
:1011A000007001201870012034700120827001202D
:1011B000667001209E700120D4700120C27201204F
:1011C00088710120A0710120BC7101200A720120E8
:1011D000EE710120267201205C720120AC6C0120AE
:1011E0006C6C0120F26C01201C6D0120486D012007
:1011F0008E6D0120CE6D01200E6E0120546E0120F7
:10120000946E0120F66E0120406F0120467101208E
:10121000CE720120EE720120527401209E770120CF
:10122000067901205E7A0120E0740120007501201A
:101230002C830120CE800120AA7F01201081012073
:101240006681012086810120867E0120A67E012004
:10125000C67E0120007F0120387F0120727F01209F
:10126000DA7F012024800120548001209E8001200B
:1012700078120120000000006C6962676C6F737364
:1012800000000000000000000F1E272629282B2A3E
:0412900010A0118019
:10130000397106DE22DC8000B71701209387872819
:1013100098432328E4FCDC43232AF4FC0145EF70C6
:10132000A03F2326A4FE8327C4FE81EBB70701203C
:1013300013850737C123854751A90546E167938582
:10134000076A0325C4FEEF70202E930704FD0147B2
:10135000BE8605469305A0060325C4FEEF70003047
:10136000AA8795E7930784FC0547BE860546930543
:10137000A0060325C4FEEF70C032AA8789EB83471D
:1013800084FCBE85B707012013854738A921034790
:1013900084FC930790066318F700B70701201385B4
:1013A0004739892B31A0B70701201385C73A992304
:1013B000B717012083A707292322F4FC930744FCD5
:1013C0000547BE8609469305A0060325C4FEEF70B7
:1013D000E028AA8791E7B70701201385C73C192B9E
:1013E000930744FC89070547BE8609469305A00676
:1013F0000325C4FEEF708026AA8791E7B707012076
:101400001385473EC529231504FE231404FE231328
:1014100004FE930700002320F4FE232EF4FC232C6B
:10142000F4FC930704FD85070147BE860546930536
:10143000A0060325C4FEEF706022AA879DE79307EC
:1014400084FC85070547BE8605469305A00603254F
:10145000C4FEEF700025AA8789EB834794FCBE8504
:10146000B70701201385873FBD26930704FD890731
:101470000147BE8605469305A0060325C4FEEF700E
:10148000E01DAA879DE7930784FC89070547BE8670
:1014900005469305A0060325C4FEEF708020AA87A9
:1014A00089EB8347A4FCBE85B70701201385C7409D
:1014B0001D26930704FD8D070147BE86054693054B
:1014C000A0060325C4FEEF706019AA879DE7930765
:1014D00084FC8D070547BE8605469305A0060325B7
:1014E000C4FEEF70001CAA8789EB8347B4FCBE855D
:1014F000B707012013850742F92C8347A4FCA207F4
:101500001397070141878347B4FCC207C187D98F6E
:101510002315F4FE8317A4FE3E85EF10F063B70792
:10152000012003A6074D83A6474DEF10B01FAA87E1
:101530002E883E85C285B707012003A6874D83A666
:10154000C74DEF10301EAA872E883E85C285B7078B
:10155000012003A6074E83A6474EEF104049AA87F5
:101560002E883E85C285EF10506FAA872320F4FE97
:10157000032504FEEF10F064AA872E883E86C286FB
:10158000B707012013854743B924930704FD91074A
:101590000147BE8605469305A0060325C4FEEF70ED
:1015A000E00BAA879DE7930784FC91070547BE8659
:1015B00005469305A0060325C4FEEF70800EAA879A
:1015C00089EB8347C4FCBE85B707012013854744D8
:1015D0001924930704FD95070147BE860546930528
:1015E000A0060325C4FEEF706007AA879DE7930756
:1015F00084FC95070547BE8605469305A00603258E
:10160000C4FEEF70000AAA8789EB8347D4FCBE852D
:10161000B70701201385C7457D2A8347C4FCA2076D
:101620001397070141878347D4FCC207C187D98F2D
:101630002314F4FE831784FE3E85EF10F051B707A4
:10164000012003A6874E83A6C74EEF10B00DAA87D0
:101650002E883E85C285B707012003A6074F83A6C3
:10166000474FEF10300CAA872E883E85C285B707FA
:10167000012003A6074E83A6474EEF104037AA87E6
:101680002E883E85C285EF10505DAA87232EF4FC7C
:101690000325C4FDEF10F052AA872E883E86C2862D
:1016A000B7070120138547473D22930704FD99079B
:1016B0000147BE8605469305A0060325C4FEEF60DC
:1016C000F079AA879DE7930784FC99070547BE86B2
:1016D00005469305A0060325C4FEEF60907CAA870B
:1016E00089EB8347E4FCBE85B70701201385874853
:1016F000DD20930704FD9D070147BE86054693053F
:10170000A0060325C4FEEF607075AA879DE79307C6
:1017100084FC9D070547BE8605469305A006032564
:10172000C4FEEF601078AA8789EB8347F4FCBE857E
:10173000B70701201385074A79288347E4FCA207ED
:101740001397070141878347F4FCC207C187D98FEC
:101750002313F4FE831764FE3E85EF10F03FB707B6
:10176000012003A6874E83A6C74EEF10A07BAA8751
:101770002E883E85C285B707012003A6074F83A6A2
:10178000474FEF10207AAA872E883E85C285B7077B
:10179000012003A6074E83A6474EEF104025AA87D7
:1017A0002E883E85C285EF10504BAA87232CF4FC6F
:1017B000032584FDEF10F040AA872E883E86C2865E
:1017C000B70701201385874B3920A1B93E85F25018
:1017D00062542161828039713EDA2ED232D436D6FB
:1017E0003AD842DC46DE97F7FE5F9387272E22CC5D
:1017F000804326CA06CEAA8409C41C4C99E32285DC
:101800001D2B0C4454102686228536C6EF00101975
:10181000F2406244D24421618280011126CA4AC842
:1018200006CE22CC4EC652C4AA842E8901C51C4DB8
:1018300091E311239C4C804499E32685ED2997F789
:10184000FFFF9387A7CD631CF402C0408357C400F9
:10185000A18BB1C71C48A1C7FD59294A1C44834527
:101860000900FD17B1E91CC463DE07062286A945FD
:1018700026854128FD576308F502294535A097F7CD
:10188000FFFF9387A7CB6314F4008044C1B797F799
:10189000FFFF9387A7C6E31BF4FAC04445BFA285A8
:1018A0002685052255D97D55F2406244D2444249ED
:1018B000B249224A056182801CC4050963D707002A
:1018C000184C63CBE700638945011C401387170060
:1018D00018C02380B70059B7228626851D20E31F34
:1018E00035F7D1B71C401387170018C0294723804C
:1018F000E70061B797F7FE5F9387471DAA85884386
:1019000029BF011122CC26CA4AC806CE4EC6AA84D7
:101910002E89328401C51C4D91E3312997F7FFFFD1
:101920009387C7BF6319F406C0401C4C1CC483577F
:10193000C400A18BC9C31C48BDCF1C480840937983
:10194000F90F1379F90F1D8D5C486346F500A285E8
:101950002685E9242DE51C440505FD171CC41C4003
:101960001387170018C0238037015C486389A700DC
:101970008357C400858B81CBA9476316F900A285E4
:101980002685692C0DEDF24062444A85D2444249D5
:10199000B2490561828097F7FFFF938727BA6314E6
:1019A000F400804459B797F7FFFF938727B5E31EEC
:1019B000F4F6C0449DBFA285268521203DDD7D59DA
:1019C000D9B7411197F7FE5F9387471026C284432A
:1019D00022C44AC006C62A892E8489C49C4C99E335
:1019E0002685912E97F7FFFF938747B3631CF40278
:1019F000C0400317C40093170701C18393F6870003
:101A0000B5EE93F607019DEEA5472320F900136775
:101A100007042316E4007D55B24022449244024953
:101A20004101828097F7FFFF938747B16314F40069
:101A30008044C1B797F7FFFF938747ACE31BF4FAE5
:101A4000C04445BF918B8DC74C5889C99307440446
:101A50006384F5004A85812B232A04028357C4003E
:101A60002322040093F7B7FD2316F4001C481CC082
:101A70008357C40093E787002316F4001C4881EFC6
:101A80008357C4001307002093F707286385E700F6
:101A9000A2854A859D218357C40013F7170005C707
:101AA0005C4823240400B307F0401CCC1C480145CB
:101AB000A5F78317C40013F7070839DF93E7070476
:101AC0002316F40089BF898B014791E3584818C455
:101AD000F1BF83D7C500011122CC26CA06CE4AC861
:101AE0004EC613F78700AA842E8465E7D841634762
:101AF000E000B8416344E0000145C1A058546DDFE7
:101B000003A904009396370123A0040063DE0606B0
:101B100068488357C400918B99C75C401D8D5C5801
:101B200099C33C401D8D5C540C502A868146268505
:101B30008297FD570357C400631DF5009440F54795
:101B400063E4D708B70740208507B3D7D700858B54
:101B5000A5CF1C48232204001CC09317370163D86B
:101B60000700FD576314F5009C4091E368C84C588A
:101B700023A02401D1D1930744046384F500268572
:101B80001D21232A04028DBF0C508546014626855F
:101B90000297FD57E31FF5F69C40A5DF7547638567
:101BA000E70059476395E70023A02401B1B78357A5
:101BB000C40093E707042316F400F2406244D244C1
:101BC0004249B24905618280136707042316E40085
:101BD000EDB783A90501E38109F203A905008D8B07
:101BE00023A0350133093941014791E3D84918C48D
:101BF000E35420F11C540C50CA864E8626858297E9
:101C0000634AA0008357C4007D5593E70704231659
:101C1000F40065B7AA993309A940D9BF9C49B9CF47
:101C2000011122CC06CE2A8411C51C4D81E72EC697
:101C30001922B24597F7FFFF9387478E639BF50004
:101C40004C408397C50095C722856244F2400561E8
:101C500049B597F7FFFF9387678E6394F5000C44AF
:101C6000CDB797F7FFFF93876789E39CF5FC4C445A
:101C7000C9BFF2406244014505618280014582800E
:101C8000411122C406C62A842316B5002317C500B5
:101C90002320050023220500232405002322050616
:101CA00023280500232A0500232C05002146814511
:101CB0001305C505CD24970700009387877A5CD06C
:101CC000970700009387E77C1CD497170000938741
:101CD00027815CD4971700009387E78300D01CD836
:101CE000B24022444101828097050000938545F36C
:101CF00099A2411126C2130680069384F5FFB3848E
:101D0000C4024AC02E8922C406C693854407912680
:101D10002A8419C92320050023222501310508C47E
:101D2000138684068145852C2285B2402244924444
:101D30000249410182801C4DADE3411106C622C417
:101D400097070000938787FA1CD59387C1809C432F
:101D50002324050423260504232805046314F50021
:101D600085471CCD2A841D2848C02285052808C423
:101D700022852D2048C4484001469145113708442A
:101D80000546A545F53D48440946C945D53D854725
:101D90001CCCB24022444101828082804111938751
:101DA000C18026C284434AC006C69C4C22C42A89EC
:101DB00099E326854937938484048044DC40FD17E9
:101DC00063D607009C40B1CF8440C5BF0317C40051
:101DD00031E7C1778507232204062320040023224C
:101DE0000400232404005CC423280400232A0400E4
:101DF000232C0400214681451305C405692A232AA2
:101E00000402232C04022324040423260404228530
:101E1000B240224492440249410182801304840664
:101E200079BF91454A85F13588C02A8451FDB14773
:101E30002320F900E9BF797122D44AD052CC56CA86
:101E40005AC85EC606D626D24ECE2A8AAE8A130459
:101E500085040149054BFD5B09ECB25022544A85CB
:101E600092540259F249624AD24A424BB24B4561FE
:101E70008280044483294400FD1963D40900004092
:101E8000E1BF83D7C400637BFB008397E4006387D3
:101E90007701A6855285829A3369A90093848406C6
:101EA000E1BF1971A6DAAE848395E500A2DC86DE77
:101EB000328463DC050083D7C40023A0060093F7B7
:101EC00007089DE39307004015A0300836C64D254E
:101ED000B246E34205FE7247BD67F98F7977BA973C
:101EE00093B717009CC2F9BF930700041CC0F650BB
:101EF0006654D65401450961828083D7C50001111B
:101F000022CC06CE26CA4AC8898B2E8489CF930755
:101F100074041CC01CC885475CC8F2406244D244AB
:101F200042490561828074003000AA849D3FA24529
:101F30002A892685392A01ED8317C40013F7072063
:101F400069FFF19B93E727002316F400C9B79707B1
:101F500000009387A7D99CD48357C40008C008C841
:101F600093E707082316F400A2475CC8B24789CF5D
:101F70008315E40026851D2501C98357C400F19B04
:101F800093E717002316F4008357C4003369F90060
:101F90002316240159B72A8311C62300B3007D16E6
:101FA000050365FE8280CDC583A7C5FF411122C40C
:101FB00006C626C21384C5FF63D307003E94AA84D5
:101FC000B92597F7FE5F9387E7B49C4389EF2322F7
:101FD000040097F7FE5F23AF87B22244B240268504
:101FE0009244410135A5637EF40014403307D400C8
:101FF0006396E7009843DC43369718C05CC0D1BFB6
:10200000BA87D84319C3E37DE4FE94433386D700EF
:10201000631F86001040B29694C33386D700E31E38
:10202000C7FA10435843B29694C3D8C37DB76375BB
:10203000C400B1479CC055B71040B306C400631636
:10204000D70014435843B29614C058C0C0C371B7E8
:102050008280011126CA93843500F19806CE22CCE5
:102060004AC84EC6A104B14763F7F404B14463E61D
:10207000B4042A89692B97F7FE5F9387A7A9984331
:102080003A8431E497F7FE5F938707A99C4381EB7D
:1020900081454A85452697F7FE5F23AFA7A6A6850B
:1020A0004A85492EFD5963193507B1472320F900A8
:1020B0004A85B92B29A0E3DC04FAB1471CC10145CC
:1020C000F2406244D2444249B249056182801C40D8
:1020D000858F63C00704AD4663F6F6001CC03E94CE
:1020E00004C001A85C406314870217F7FE5F232336
:1020F000F7A24A85312B1305B40093074400619978
:102100003307F54055DF3A94898F1CC055BF5CC337
:10211000CDB722874040B5B7130435007198E3016D
:1021200085FCB305A4404A853126E31B35FBB5BFCA
:102130001C46FD171CC663DA0700184E63C5E7008E
:10214000A9476394F5006FF0CFFB1C422E851387DF
:10215000170018C22380B7008280011122CC26CA42
:102160004AC84EC652C406CE2A89AE893284B30408
:10217000D6007D5A63149400014509A883450400E4
:102180004E864A8575370504E31645FFF2406244E2
:10219000D2444249B249224A05618280357122CD3A
:1021A00026CB4AC94EC706CF52C556C35AC1DEDE3A
:1021B000E2DCE6DAAA89AE843289368401C51C4D98
:1021C00091E3953E97E7FFFF93874735639BF40CB8
:1021D00083A4490083D7C400A18BF5C79C48E5C7F9
:1021E00093070002A304F1029307000302D2230520
:1021F000F10222C6930B500297EAFFFF938A0A3638
:10220000054C294B4A848347040099C36390770F98
:10221000B30C2441638D0C00E6864A86A6854E8564
:102220002D3FFD576306F51E9256E69636D283473C
:102230000400638F071CFD571309140002C802CE67
:102240003ECA02CCA309010482D483450900154685
:1022500056854D2613041900C24759E913F70701A3
:1022600009C713070002A309E10413F7870009C790
:102270001307B002A309E104834609001307A00273
:102280006380E608F2474A848146254603470400F6
:1022900093051400130707FD6379E60AB5CA3ECE1D
:1022A00085A897E7FFFF938767296395F40083A4C8
:1022B00089000DB797E7FFFF93874724E39CF4F06D
:1022C00083A4C90001BFA6854E85EFF08FEF09D921
:1022D0007D55FA406A44DA444A49BA492A4A9A4A38
:1022E0000A4BF65B665CD65C0D618280050421BFFB
:1022F000330555413315AC00C98F3EC82289B1B7AB
:10230000324793064700184336C6634907023ACE60
:10231000034704009307E002631FF7040347140018
:102320009307A002631BF702B24709041387470013
:102330009C433AC663C107023ECA35A83307E04052
:1023400093E727003ACE3EC8E1B7B38767038546D7
:102350002E84BA9725BFFD57C5B7050402CA81462A
:10236000814725460347040093051400130707FD22
:102370006376E606F1F2834504000D4617E5FFFF9C
:102380001305451E852C11CD97E7FFFF9387871D09
:102390001D8D93070004B397A700424505045D8D8A
:1023A0002AC883450400194617E5FFFF1305C51B1E
:1023B000130914002304B102352C3DC197E7FEDF59
:1023C000938747C495E74247B2471377071009CF71
:1023D00091073EC69257D2973ED22DB5B387670379
:1023E00085462E84BA97BDBF9D07E19BA107D5B74F
:1023F000780097060000938686D626860C084E85C0
:1024000097000000E7000000FD572A8AE314F5FC5E
:1024100083D7C40093F70704E39C07EA125555BD20
:10242000780097060000938686D326860C084E8592
:10243000FD24D9BF411122C42A842E8523A8018EF0
:1024400006C6EF602074FD576317F5009387018F70
:102450009C4391C31CC0B24022444101828041117F
:1024600022C42E848395E50006C6992B6349050096
:102470007C48AA977CC8B24022444101828083579D
:10248000C4007D777D17F98F2316F400EDB783D74D
:10249000C500011122CC26CA4AC84EC606CE93F703
:1024A0000710AA842E843289B68991C78395E500E6
:1024B00089460146092A8357C4007D777D17F98F25
:1024C0002316F4008315E4006244F240CE864A8667
:1024D000B24942492685D24405613DA8411122C432
:1024E0002E848395E50006C6F928FD570357C400DE
:1024F000631BF500FD77FD17F98F2316F400B2403A
:102500002244410182808567D98F2316F40068C870
:10251000FDB78395E50005A8411122C42A842E85C4
:10252000B285368623A8018E06C6EF60406CFD5743
:102530006317F5009387018F9C4391C31CC0B24081
:10254000224441018280411122C42A842E8523A87D
:10255000018E06C6EF604057FD576317F50093875D
:10256000018F9C4391C31CC0B24022444101828030
:10257000411122C42A842E85B28523A8018E06C665
:10258000EF60A056FD576317F5009387018F9C43BA
:1025900091C31CC0B240224441018280411122C437
:1025A0002A842E8523A8018E06C6EF606056FD574B
:1025B0006317F5009387018F9C4391C31CC0B24001
:1025C000224441018280411122C42A842E85B28591
:1025D000368623A8018E06C6EF608055FD57631727
:1025E000F5009387018F9C4391C31CC0B2402244E5
:1025F0004101828093F5F50F2A966314C5000145C9
:10260000828083470500E38DB7FE0505FDB7828014
:102610008280797156CA9C49BA8A984522D426D2BA
:102620004ECE52CC06D64AD05AC85EC6AA892E844F
:10263000B284368A63D3E700BA879CC00347340468
:1026400019C385079CC01C4093F7070281C79C40B3
:1026500089079CC00329040013796900631A0900E3
:10266000130B9401FD5B5C449840998F634CF90413
:102670001C408346340493F70702B336D000A5EB21
:1026800013063404D2854E85829AFD576303F50400
:102690001C4011469840998B544481446397C7006D
:1026A000B384E64063D3040081441C441848635457
:1026B000F700998FBE94014969047D5B63982405F6
:1026C000014509A885465A86D2854E85829A631EA1
:1026D00075017D55B250225492540259F249624A12
:1026E000D24A424BB24B456182800509ADBF3307E8
:1026F000D40013060003A301C704034754049387BF
:102700001600A2978906A381E7049DBF854622860D
:10271000D2854E85829AE30E65FB050945B779712E
:1027200022D426D24AD04ECE06D652CC56CA5AC849
:10273000B68983C685019307E0063289AA842E8470
:10274000138635046380F61E63E2D70693073006CE
:102750006382F60A63EDD700638A061E930780053D
:102760006386F616930A24042301D40469A8930708
:1027700040066386F60093079006E395F6FE1C403C
:10278000084393F6070893054500C1C21C410CC3DA
:1027900063D807001307D002B307F040A301E40495
:1027A00097E6FFFF9386C6DC294765A093073007AD
:1027B0006382F61A63EFD7009307F006638FF6047F
:1027C00093070007E390F6FA9C4193E707029CC148
:1027D00009A8930750076382F60493078007E393E1
:1027E000F6F893078007A302F40497E6FFFF9386A9
:1027F00066D9DDA01C43938A2504938647009C4339
:1028000014C32381F5048547ADA293F607041C4148
:102810000CC3BDDEC207C187A5BF0C401C4313F823
:102820000508138547006305080008C39C4339A0C9
:1028300093F5050408C3FDD983D707001307F006F5
:10284000638AE60C97E6FFFF938686D22947A301A9
:1028500004044C400CC463C5050008406D9908C0D1
:1028600099E3B28A91CDB28AB3F5E702FD1AB69523
:1028700083C505002380BA00B3D5E70263F2E70AF7
:10288000A147631EF7001C40858B91CB58401C4824
:1028900063C7E70093070003A38FFAFEFD1A330610
:1028A000564110C84E87CA867000A285268595338A
:1028B0007D5A6314450D7D55B250225492540259ED
:1028C000F249624AD24A424B45618280A382D504D2
:1028D00097E6FFFF9386C6C90C40084313F8050826
:1028E0001C4111056300080208C313F7150001C756
:1028F00093E505020CC04147B9FB0C4093F5F5FD8B
:102900000CC0B1B713F8050408C3E30008FEC20702
:10291000C183E1BF97E6FFFF938686C5214705BFC8
:10292000AE8799B794411C43CC4913F80608138528
:1029300047006306080008C39C438CC301A808C372
:1029400093F606049C43F5DA2390B700232804008D
:10295000B28A89BF1C43D04181459386470014C386
:1029600083AA07005685793101C53305554148C012
:102970005C401CC8A301040435B714485686CA85B8
:1029800026858299E30945F31C40898B8DE7B24780
:102990004844E353F5F23E8505B785465686CA8519
:1029A00026858299E30965F1050A5C443247998FCF
:1029B000E345FAFEE9BF014A930A94017D5BF5B74E
:1029C000411122C42A842E85B285368623A8018E21
:1029D00006C6EF608018FD576317F5009387018FD7
:1029E0009C4391C31CC0B240224441018280797152
:1029F00013D8450126D24ECE52CC5AC85EC6939407
:102A0000C50006D622D44AD056CA1378F87F2A8B3E
:102A1000B28B368AB18093D9F50163040808930715
:102A2000F07F630AF80C935AD5018E04B3E49A0040
:102A3000B70A8000B3EA540113143500130918C013
:102A4000014B13554A019314CA001378F57FB180E6
:102A5000135AFA016304080C9307F07F6309F81016
:102A60001395340093D7DB015D8DB7048000C98CCA
:102A7000139F3B00130518C0814713172B005D8F70
:102A80007D17B94633C649013308A94063E3E61010
:102A900097E6FFFF938646B00A07369718433697A6
:102AA0000287B3EAA40063820A069DC82685EF0068
:102AB000F02C930755FF71476349F702F54A130459
:102AC00085FFB38AFA40B3948400B35A5B01B3EA3A
:102AD0009A0033148B001308D0C03309A8408DB777
:102AE000EF00D02913050502E9B7930485FDB31A59
:102AF0009B000144CDB7B3EAA400638C0A002A848A
:102B0000A68A1309F07F0D4B2DBF01440149054BE7
:102B10000DBF01441309F07F094B25B733EF740152
:102B200063000F068DC82685EF005025930755FFDB
:102B300071476348F7027547130F85FF1D8FB394E4
:102B4000E40133D7EB00D98C339FEB011306D0C0DF
:102B50003305A64015B75E85EF0050221305050228
:102B6000F1B7930485FDB3949B00014FC5B733EFD4
:102B70007401630B0F005E8F1305F07F8D47F5BD69
:102B8000814401458547D5BD81441305F07F8947C0
:102B9000EDB563E6540163939A2A6361E42B93963F
:102BA000FA01135714009317F40193DA1A0033E46F
:102BB000E6001395840093548F01458D135E050143
:102BC000B3D8CA03131305011353030113570401A8
:102BD00093158F00B3F4CA03C68FB3061303939AF9
:102BE000040133675701637CD7002A97938FF8FF5E
:102BF0006367A7006375D700938FE8FF2A97158F47
:102C0000B35EC703420441803377C703F686B30837
:102C1000D3034207418F637C17012A979386FEFFF7
:102C20006367A700637517019386EEFF2A97C20FAB
:102C3000B3EFDF00C166330417419388F6FF13DF5B
:102C40000F0133F71F0193DE0501B3F81501B3033C
:102C50001703B3041F033387EE02B302DF03330FFE
:102C6000970013D703017A9763739700B692135FA7
:102C70000701169FC162FD12B3765700C206B3F377
:102C800053009E966367E401FE84631EE40363FCC5
:102C9000D702AE9733B7B7002A973A949384FFFFD1
:102CA000636685006311850263EFB7006366E40124
:102CB000631B8F0063F9D700AE9733B7B7002A972D
:102CC0009384EFFF3A94B386D7403304E441B3B71B
:102CD000D7001D8C7D5F6305850E335FC40313D75A
:102CE00006013374C403B307E3034204598C7A87A3
:102CF000637CF4002A941307FFFF6367A4006375E5
:102D0000F4001307EFFF2A941D8C335FC403C2063F
:102D1000C1823374C403FA873303E3034204558C3E
:102D2000637C64002A949307FFFF6367A4006375C4
:102D300064009307EFFF2A9442075D8F9317070102
:102D4000C1833304644013530701338E1703B30860
:102D5000130333836E02B38EFE0293570E01C69E99
:102D6000F69763F41701C166369393D807019A98D2
:102D700041637D13B3F66700C206337E6E00F296A0
:102D800063661401631E14193A8F9DCA2A94130FA7
:102D9000F7FF6361A402636614016312141963FDF3
:102DA000D50093971500B3B5B7002E95130FE7FF25
:102DB0002A94BE85631414016384B600136F1F0048
:102DC0001307F83F6357E00A93777F0081CF93772B
:102DD000FF0091466388D70093064F0033BFE6019A
:102DE000FA94368F9397740063D80700B70700FFF3
:102DF000FD17FD8C130708409307E07F63C8E710B9
:102E0000135F3F009397D401B3E7E70113D5340074
:102E100032051377F77F5207B25022543181598D12
:102E20007E063367C50092540259F249624AD24A7B
:102E3000424BB24B3E85BA85456182807D18814701
:102E40008DBB4E86D684228FDA8709476380E70CD4
:102E50000D476386E70A0547E394E7F60145814796
:102E600085A85286DDB7B7040800014F01468D479B
:102E7000E9BF0545198D93078003E3C1A7FEFD4710
:102E800063CAA7041308E841B39704013357AF009E
:102E900033180F01D98F33380001B3E7070133D559
:102EA000A40013F7770001CF13F7F70091466308EA
:102EB000D70013874700B337F7003E95BA8713173B
:102EC0008500634A07041317D5018D83D98F0D81BF
:102ED00001473DBF8557998F93060002B3D7F40091
:102EE00001476306D5001308E84333970401336FA5
:102EF000E701333FE001B3E7E70101455DB737057F
:102F0000080081471307F07F014619B70145814743
:102F10001307F07FF5BD014581470547D5BD7A8789
:102F20003A8F69BD79714ECE93D9450122D426D20C
:102F300052CC56CA5AC89394C50006D64AD05EC62B
:102F400093F9F97F2A84328BB68AB18013DAF501BE
:102F5000638109089307F07F6383F90C9357D501C8
:102F60008E04DD8CB7078000DD8C13193500938942
:102F700019C0814B13D54A011394CA001375F57F0C
:102F8000318093DAFA0155CD9307F07F6301F51094
:102F90009357DB010E045D8CB70780005D8C130531
:102FA00015C093173B00014793962B00D98E4E9581
:102FB000FD16B94533465A011308150063EAD50ECC
:102FC00097D5FFFF938505618A06AE969442AE962B
:102FD000828633E9A400630D090485C82685792B10
:102FE000130755FFF14763C6E702F547130985FF4D
:102FF000998FB3942401B357F400DD8C3319240165
:103000009309D0C0B389A940ADB78D2B1305050234
:10301000C1BF930485FDB31494000149D5B733E9CA
:10302000A400630B09002A899309F07F8D4B99B79F
:1030300081448149854B3DBF81449309F07F894B91
:1030400015BFB3676401A1CF05C82285052B930680
:1030500055FFF14763C7D7027547930785FF158F63
:103060003314F4003357EB00598CB317FB001307EC
:10307000D0C03305A74005BF5A85092313050502B3
:10308000F9B7130485FD33148B008147CDB7B367BF
:10309000640191CBDA871305F07F0D4731B7014406
:1030A0000145054711B701441305F07F0947EDBD00
:1030B000416F930EFFFF1357090193D8070133792E
:1030C000D901B3F7D701B3852803B3862703B30F1C
:1030D000F7023383F50193D506019A95330E170352
:1030E00063F3F5017A9E93D30501B3F5D501B3F6E9
:1030F000D601135F0401B372D401C205B695B30EB5
:103100005702B386220333092F033303D90113D99E
:1031100006011A993307E7036374D90141631A97CB
:10312000935E0901C169BA9E1387F9FF3379E900FB
:10313000F98E13D404014209F98C3699338797022A
:10314000CA933303F402B3869802B3878802B38824
:10315000660093560701C69663F36600CE9793D830
:103160000601C169B38FF8009387F9FFFD8E7D8F4B
:10317000B3889202C206BA96B3075402B3049F0200
:1031800033038F02BE9413D40801A29463F3F400B6
:103190004E93C167FD1733F7F400B3F8F800420708
:1031A0001E9E469733392E01769733042701369EAB
:1031B000B336DE00B308F401338FD8003337D701BC
:1031C00033342401598CC180B3B8F801B336DF0021
:1031D0002694B3E6D80036941A9493577F012604B8
:1031E0005D8C93179E00CD8FB337F000135E7E0188
:1031F00013179F00B3E7C701D98F131774006358E3
:10320000070A13D71700858BD98F1317F401D98FAD
:1032100005809306F83F635ED00813F7770001CF6F
:1032200013F7F70091456308B70013874700B337DA
:10323000F7003E94BA8713177400635807003707E6
:1032400000FF7D17798C930608401307E07F634CDD
:10325000D70E13D737009317D401D98F0D803204BE
:1032600013F7F67F52073180598C7E063367C4000E
:10327000B250225492540259F249624AD24A424B05
:10328000B24B3E85BA854561828052862684CA87C4
:103290005E8789466309D70A8D46630FD70885463E
:1032A000E319D7F6014481479DA05686DDB72A88E9
:1032B0008DB78545958D13078003E345B7FE7D47A0
:1032C0006349B7041308E84133170401B3D6B700C4
:1032D000B3970701558FB337F000D98F3354B4003B
:1032E00013F7770001CF13F7F70091466308D70073
:1032F00013874700B337F7003E94BA87131784004B
:10330000634807041317D4018D83D98F0D8081463C
:10331000B9B70557158F130500023357E4008146EE
:103320006386A5001308E843B3160401D58FB337AD
:10333000F000D98F01446DB7370408008147930628
:10334000F07F014629BF014481479306F07F01BF0A
:1033500001448147854621B7411106C622C426C2D1
:1033600031CD9357F54133C4A7001D8C9354F5011B
:10337000228529241307E041A947098F63CAA702C0
:10338000AD47898F5505B357F4003314A400268543
:10339000B2071377F77F5207B1837E05D98F33E7E2
:1033A000A700B240228522449244BA85410182801E
:1033B0005515B317A40026850144D9BF014781479D
:1033C000E5BF93577501411193F7F70F22C426C249
:1033D000131495009354F5011385170006C6137551
:1033E000E50F258015C513850738935734007604FB
:1033F000B2071375F57F5205B183C98FB24022859C
:103400002244FE0433E79700BA859244410182804A
:1034100095EB79DC22859D22A94763CFA700AD47B4
:10342000898F13075501B357F4003314E4001307D1
:1034300090383305A7406DBF930755FFB317F400CD
:103440000144F5B7814719C4935734003707080082
:103450007604D98F1305F07F61BF1396C5003182C2
:1034600013D84501931736001378F87F1356D5010A
:103470005D8E9307180093F7E77FFD8113173500E2
:10348000D1C3930608C89307E00F63CBD708634204
:10349000D006A55763C9F60CB707800079455D8E45
:1034A000158DFD4763C3A702130828C8B31707018A
:1034B000B337F000331606013355A700D18FC98FFB
:1034C000814613F7770025C34DA0F957B386D7403F
:1034D00093070002B356D60081486306F50013082F
:1034E00028CAB3180601B3E7E800B337F000D58F58
:1034F000C1BF1A053335A0000E069357D701498E78
:10350000D18FC1B7B367E60063150800B337F00089
:1035100045BF9306F00F81CB0E06B7070002CDB76B
:1035200081479306F00F13975700635B07008506EA
:103530001307F00F6382E604370700FC7D17F98F4D
:103540001307F00F8D836396E60081C7B70740002D
:103550008145A60793F6F60FDE06A583FE05D58FF7
:1035600033E5B70082808547814613F7F70011469F
:10357000E30BC7FA910745BF8147D9B7C1676376A7
:10358000F5029307F00FB3B7A7008E0713070002E9
:103590001D8FB357F50017D5FFFF13056507AA97D1
:1035A00003C507003305A740828037070001C147E4
:1035B000E36EE5FCE147D9BF011122CE00102326BE
:1035C000A4FE0327C4FE938701816315F700B707A4
:1035D000000211A081473E8572440561828001117D
:1035E00022CE00102326A4FE0327C4FE9387018168
:1035F0006314F700894711A081473E857244056135
:103600008280011122CE00102326A4FE2324B4FEC2
:10361000832784FE91E7B70700809387070921A8D5
:10362000032784FE85476317F700B7070080938759
:10363000070911A081473E8572440561828001110E
:1036400022CE00102326A4FE2324B4FE832784FE6A
:1036500099E38D4709A8032784FE85476314F70083
:103660009D4711A081473E857244056182805D714E
:1036700086C6A2C4CAC2CEC052DE56DC5ADA5ED8B2
:1036800062D666D48008232EA4FA8327C4FB3E8525
:1036900025372326A4FC0327C4FCB167F117BA978A
:1036A0009C432324F4FC0327C4FCB167E117BA97B9
:1036B0009C432322F4FC0327C4FCB167F117BA979B
:1036C0009C43032784FCE318F7FC832784FC3E8C8F
:1036D000814C93190C000149832744FC3E8A814A9E
:1036E000336B4901B3EB5901DA875E883E85C285A9
:1036F000B640264416498649725AE25A525BC25B6A
:10370000325CA25C61618280797106D622D44AD291
:103710004ED00018232EA4FC232CB4FC2328C4FC78
:10372000232AD4FC8327C4FD2326F4FE8327C4FE6A
:103730003E8559352324A4FE832784FD8E073E87CA
:10374000832784FE3E9791679107BA973E87FD577E
:103750001CC3832784FD8E073E87832784FE3E9704
:103760009167BA973E87832704FD1CC3832744FDD6
:1037700013D907008149832784FD8E073E8783275D
:1037800084FE3E9791679107BA974A8798C381470D
:103790003E85B250225412598259456182800111EE
:1037A00006CE22CC0010232604FEF32740F1232668
:1037B000F4FE8327C4FE3E85EF4090622324A4FEDE
:1037C000032584FEEF40705FAA873E85F240624485
:1037D00005618280397106DE22DC80002326A4FC8C
:1037E0000325C4FCED3B2324A4FE8327C4FC232231
:1037F000F4FE832744FEDC43A9EF232604FE81A0C8
:103800008325C4FE0325C4FCED3B2320A4FE8325B1
:10381000C4FE0325C4FC2535232EA4FC832704FE07
:103820009C43DC4F8326C4FC01468325C4FD03254D
:1038300004FE82978327C4FE85072326F4FE032710
:10384000C4FE832784FEE34DF7FA832744FE054731
:10385000D8C30100F250625421618280397106DEC2
:1038600022DC80002326A4FC2324B4FC2322C4FCF5
:103870002320D4FCFD572326F4FEEF10004623201E
:10388000A4FE232404FE213F232EA4FC0325C4FC14
:10389000B933232CA4FC032704FE85476308F700F3
:1038A000832704FE81C78327C4FE49A0232204FE88
:1038B00091A0832544FE0325C4FC5133232AA4FC94
:1038C000832544FE0325C4FC2D3B2324A4FE0327AB
:1038D000C4FD832784FE6318F700032784FC832735
:1038E00044FD6300F702232404FE832744FE85077A
:1038F0002322F4FE032744FE832784FDE34BF7FADB
:1039000011A00100832784FE85C3832784FE9C4386
:10391000DC4F832604FC032644FC832584FC03251A
:1039200084FE82972326A4FE8327C4FE3E85F250A0
:10393000625421618280797122D60018232EA4FC62
:10394000232CB4FC232AC4FC2328D4FCFD572326B3
:10395000F4FE8327C4FE3E85325445618280011106
:1039600006CE22CC00102326A4FEEF100037AA8733
:103970003E85F240624405618280797106D622D488
:103980000018232EA4FC232CB4FCFD572326F4FEA0
:1039900039352324A4FE832784FE95C3032784FDA1
:1039A000854763E0E702832784FE9C43DC4383254D
:1039B00084FD032584FE82972326A4FE21A0010016
:1039C00011A001008327C4FE3E85B25022544561F8
:1039D0008280397106DE22DC80002326A4FC2324A9
:1039E000B4FCFD572326F4FE832784FCC9C7232497
:1039F00004FE75332320A4FE0325C4FCCD36232EFC
:103A0000A4FC232204FE91A0832544FE0325C4FCCC
:103A10003D31232CA4FC832544FE0325C4FCD5366C
:103A20002324A4FE032704FE832784FE6318F700E3
:103A3000032784FC832784FD6300F702232404FE0C
:103A4000832744FE85072322F4FE032744FE8327B1
:103A5000C4FDE34BF7FA11A00100832784FE81CF58
:103A6000832784FE9C43DC53832584FC032584FE4A
:103A700082972326A4FE8327C4FE3E85F25062541B
:103A800021618280397106DE22DC80002326A4FCBD
:103A90002324B4FCFD572326F4FE832784FCC9C7E6
:103AA000232404FEED392320A4FE0325C4FC053E97
:103AB000232EA4FC232204FE91A0832544FE03258B
:103AC000C4FCB53E232CA4FC832544FE0325C4FC82
:103AD0000D3E2324A4FE032704FE832784FE6318DF
:103AE000F700032784FC832784FD6300F702232467
:103AF00004FE832744FE85072322F4FE032744FEA9
:103B00008327C4FDE34BF7FA11A00100832784FE4D
:103B100081CF832784FE9C439C57832584FC032507
:103B200084FE82972326A4FE8327C4FE3E85F2509E
:103B3000625421618280797106D622D40018232E26
:103B4000A4FC232CB4FC232AC4FCFD572326F4FE3A
:103B50008327C4FD2324F4FE0325C4FDEFF0DFA575
:103B60002322A4FE032784FD89476309F704032762
:103B700084FD894763C8E700032784FD8547630EFA
:103B8000F700F1A8032784FD8D47630DF704032791
:103B900084FD91476309F708D9A0832744FDCDCB65
:103BA000032584FEEFF0BFACAA872E88032744FDCF
:103BB0001CC323220701232604FE59A8832744FDA2
:103BC000D1CB832744FD9C432320F4FE832704FEAE
:103BD0008A073E87832744FEBA9723A0070023263F
:103BE00004FE8DA8832744FDA5CB832744FD9C4379
:103BF0002320F4FE832704FE8A073E87832744FEA2
:103C0000BA973E8785471CC30F008004832704FEB4
:103C10008A073E87832744FEBA979C432326F4FEF7
:103C2000232604FE15A8232604FE832744FD9DC7F2
:103C3000832744FD9C432320F4FE832704FE8A0748
:103C40003E87832744FEBA979C432326F4FE39A07F
:103C5000010031A0010021A0010011A00100832773
:103C6000C4FE3E85B250225445618280797106D6E9
:103C700022D40018232EA4FC232CB4FCEF403019CE
:103C8000AA872326F4FE9307C4FE3E8689450325B2
:103C9000C4FD5535AA873E85B250225445618280C5
:103CA000797106D622D40018232EA4FC232CB4FC50
:103CB000EF40F015AA872326F4FE9307C4FE3E8644
:103CC0008D450325C4FD853DAA873E85B25022540B
:103CD00045618280011122CE00102326A4FE032715
:103CE000C4FE938781816314F700814711A0FD57BB
:103CF0003E85724405618280011122CE0010232688
:103D0000A4FE0327C4FE938781816317F700B727BA
:103D1000F4009387074011A081473E8572440561F6
:103D20008280011122CE00102326A4FE0327C4FEA8
:103D3000938781816317F700B7070080938707098E
:103D400011A081473E85724405618280011122CE17
:103D500000102326A4FE0327C4FE938781816314E9
:103D6000F700814711A081473E857244056182803A
:103D7000011122CE00102326A4FE8327C4FE634C2B
:103D8000F000B71700800327C4FE0A07938707AC2B
:103D9000BA979C4311A081473E8572440561828099
:103DA000011122CE0010F32740F12326F4FE8327D1
:103DB000C4FE3E85724405618280011122CE00104E
:103DC000A147F3A707302326F4FE010072440561E2
:103DD0008280011122CE0010A147F3B707302326BD
:103DE000F4FE0100724405618280011122CE0010B0
:103DF000A147F3A747302326F4FE01007244056172
:103E00008280011122CE0010A147F3B7473023264C
:103E1000F4FE0100724405618280011122CE00107F
:103E200093070008F3A747302326F4FE01007244ED
:103E300005618280011122CE001093070008F3B7BC
:103E400047302326F4FE010072440561828001118F
:103E500022CE0010856793870780F3A7473023267B
:103E6000F4FE0100724405618280011122CE00102F
:103E7000856793870780F3B747302326F4FE010058
:103E8000724405618280797122D60018232EA4FC29
:103E90008327C4FD0547B317F7002326F4FE8327C5
:103EA000C4FEF3A747302324F4FE010032544561D9
:103EB0008280797122D60018232EA4FC8327C4FDAA
:103EC0000547B317F7002326F4FE8327C4FEF3B794
:103ED00047302324F4FE01003254456182800111F1
:103EE00006CE22CC00102326A4FE2324B4FE130504
:103EF0004006EF405005011106CE22CC00102326CB
:103F0000A4FE2324B4FE1305800CEF40D0035D71A2
:103F100086C696C49AC29EC022DE2ADC2EDA32D829
:103F200036D63AD43ED242D046CE72CC76CA7AC881
:103F30007EC680081305C012EF40F0001D7186CECA
:103F400096CC9ACA9EC8A2C6AAC4AEC2B2C036DE79
:103F50003ADC3EDA42D846D672D476D27AD07ECED9
:103F600080103D3D2A87B71700800A07938707AC6A
:103F7000BA979C432326F4FA8327C4FA85C70325FE
:103F8000C4FA45332324A4FA832784FA83A7070EAF
:103F90002322F4FA832784FA83A7870D832544FA22
:103FA0000D4582970100F640E6425643C64336442B
:103FB000264596450646F2566257D2574258B258A1
:103FC000225E925E025FF24F2561730020307971AC
:103FD00006D622D40018232EA4FC232CB4FCC9330B
:103FE0002A87B71700800A07938707ACBA979C43C4
:103FF0002326F4FEF32720342324F4FE8327C4FE73
:1040000095C70325C4FE313B2322A4FE832784FEEB
:1040100093F7F73F032744FE9387870E8A07BA97E3
:104020009C438325C4FD0325C4FE82970100B25042
:104030002254456182801D7186CE96CC9ACA9EC854
:10404000A2C6AAC4AEC2B2C036DE3ADC3EDA42D85C
:1040500046D672D476D27AD07ECE801091332A871B
:10406000B71700800A07938707ACBA979C432326AB
:10407000F4FA8327C4FA85C70325C4FA5D312324E3
:10408000A4FA832784FA83A707142322F4FA832748
:1040900084FA83A78713832544FA1D45829701007C
:1040A000F640E6425643C643364426459645064604
:1040B000F2566257D2574258B258225E925E025F61
:1040C000F24F256173002030011122CE001023260B
:1040D000A4FE2324B4FE010072440561828079713C
:1040E00006D622D40018232EA4FC232CB4FC4D3970
:1040F000AA873E85B5392326A4FE0325C4FEEF100A
:1041000060282320A4FE2322B4FE832704FE032874
:1041100044FEA9450146B386B70036853335F50020
:104120003307C800B307E5003E87B6873A88BE85E7
:1041300042860325C4FEEF10402B0100B2502254EA
:1041400045618280000000000000000000000000C7
:10415000000000000000000000000000000000005F
:10416000000000000000000000000000000000004F
:10417000000000000000000000000000000000003F
:10418000197186DE96DC9ADA9ED8A2D6AAD4AED26F
:10419000B2D0B6CEBACCBECAC2C8C6C6F2C4F6C287
:1041A000FAC07EDE0001EFF0BFBF2A87B71700809C
:1041B0000A07938707ACBA979C432326F4FAF327A0
:1041C00020342324F4FAF32710342322F4FAF327BB
:1041D00030342320F4FAF3275030232EF4F88327C9
:1041E000C4FAFDCB0325C4FAEFF0BFB3232CA4F827
:1041F000832784FA93F7F73F232AF4F8832784FA76
:1042000063DE070A032744F9930700086312F702E5
:10421000832784F983A787392328F4F8832784F92F
:1042200083A70739832504F9032544F982976DA0F4
:10423000032744F9AD4763D7E7008327C4F993F711
:10424000F7039DEF832684F9032744F9BA8786078D
:10425000BA978E07B69783A787092328F4F8832691
:1042600084F9032744F9BA878607BA978E07B69769
:1042700083A70709832504F9032544F98297A9A890
:104280008327C4F913F7F70389476317F704F32764
:1042900070302326F4F8832784F983A7C70D2328D9
:1042A000F4F88327C4F89C432324F4F8832784F884
:1042B000832504F9032544F9829739A8032784F953
:1042C000832744F99387870E8A07BA979C438325EF
:1042D00044F90325C4FA8297F650E6525653C65362
:1042E0003654265596550656F6466647D6474648EE
:1042F000B648264E964E064FF25F09617300203095
:1043000000000000000000000000000000000000AD
:10431000000000000000000000000000000000009D
:10432000000000000000000000000000000000008D
:10433000000000000000000000000000000000007D
:10434000000000000000000000000000000000006D
:10435000000000000000000000000000000000005D
:10436000000000000000000000000000000000004D
:10437000000000000000000000001D7186CE96CCF9
:104380009ACA9EC8A2C6AAC4AEC2B2C036DE3ADC81
:104390003EDA42D846D672D476D27AD07ECE80101B
:1043A000EFF01FA02A87B71700800A07938707AC92
:1043B000BA979C432326F4FA8327C4FA8DC70325B2
:1043C000C4FAEFF01F962324A4FA832784FA83A764
:1043D00087212322F4FA832784FA83A707218325E0
:1043E00044FA414582970100F640E6425643C643EF
:1043F0003644264596450646F2566257D2574258ED
:10440000B258225E925E025FF24F25617300203047
:104410001D7186CE96CC9ACA9EC8A2C6AAC4AEC248
:10442000B2C036DE3ADC3EDA42D846D672D476D214
:104430007AD07ECE8010EFF0BF962A87B717008023
:104440000A07938707ACBA979C432326F4FA83277D
:10445000C4FA8DC70325C4FAEFF0BF8C2324A4FA55
:10446000832784FA83A707232322F4FA832784FA75
:1044700083A78722832544FA454582970100F640A9
:10448000E6425643C6433644264596450646F2560E
:104490006257D2574258B258225E925E025FF24F84
:1044A0002561730020301D7186CE96CC9ACA9EC8B5
:1044B000A2C6AAC4AEC2B2C036DE3ADC3EDA42D8E8
:1044C00046D672D476D27AD07ECE8010EFF05F8D51
:1044D0002A87B71700800A07938707ACBA979C43CF
:1044E0002326F4FA8327C4FA8DC70325C4FAEFF014
:1044F0005F832324A4FA832784FA83A787242322B3
:10450000F4FA832784FA83A70724832544FA4945CC
:1045100082970100F640E6425643C643364426459C
:1045200096450646F2566257D2574258B258225E16
:10453000925E025FF24F2561730020301D7186CEBE
:1045400096CC9ACA9EC8A2C6AAC4AEC2B2C036DE73
:104550003ADC3EDA42D846D672D476D27AD07ECED3
:104560008010EFF0FF832A87B71700800A07938730
:1045700007ACBA979C432326F4FA8327C4FA8DC765
:104580000325C4FAEFF0EFF92324A4FA832784FA71
:1045900083A707262322F4FA832784FA83A7872593
:1045A000832544FA4D4582970100F640E642564382
:1045B000C6433644264596450646F2566257D257BC
:1045C0004258B258225E925E025FF24F256173003C
:1045D00020301D7186CE96CC9ACA9EC8A2C6AAC4A7
:1045E000AEC2B2C036DE3ADC3EDA42D846D672D42B
:1045F00076D27AD07ECE8010EFF08FFA2A87B71766
:1046000000800A07938707ACBA979C432326F4FAE5
:104610008327C4FA8DC70325C4FAEFF08FF0232453
:10462000A4FA832784FA83A787272322F4FA83270F
:1046300084FA83A70727832544FA5145829701000E
:10464000F640E6425643C64336442645964506465E
:10465000F2566257D2574258B258225E925E025FBB
:10466000F24F2561730020301D7186CE96CC9ACA18
:104670009EC8A2C6AAC4AEC2B2C036DE3ADC3EDADA
:1046800042D846D672D476D27AD07ECE8010EFF061
:104690002FF12A87B71700800A07938707ACBA97CC
:1046A0009C432326F4FA8327C4FA8DC70325C4FA52
:1046B000EFF02FE72324A4FA832784FA83A707299E
:1046C0002322F4FA832784FA83A78728832544FAD0
:1046D000554582970100F640E6425643C6433644AC
:1046E000264596450646F2566257D2574258B2586A
:1046F000225E925E025FF24F2561730020301D71D1
:1047000086CE96CC9ACA9EC8A2C6AAC4AEC2B2C071
:1047100036DE3ADC3EDA42D846D672D476D27AD049
:104720007ECE8010EFF0CFE72A87B71700800A0708
:10473000938707ACBA979C432326F4FA8327C4FADD
:104740008DC70325C4FAEFF0CFDD2324A4FA832715
:1047500084FA83A7872A2322F4FA832784FA83A77B
:10476000072A832544FA594582970100F640E6421C
:104770005643C6433644264596450646F25662578A
:10478000D2574258B258225E925E025FF24F2561C4
:10479000730020301D7186CE96CC9ACA9EC8A2C6E0
:1047A000AAC4AEC2B2C036DE3ADC3EDA42D846D641
:1047B00072D476D27AD07ECE8010EFF06FDE2A8768
:1047C000B71700800A07938707ACBA979C43232644
:1047D000F4FA8327C4FA8DC70325C4FAEFF06FD427
:1047E0002324A4FA832784FA83A7072C2322F4FA2C
:1047F000832784FA83A7872B832544FA5D45829714
:104800000100F640E6425643C643364426459645E7
:104810000646F2566257D2574258B258225E925E0E
:10482000025FF24F2561730020301D7186CE96CC59
:104830009ACA9EC8A2C6AAC4AEC2B2C036DE3ADCCC
:104840003EDA42D846D672D476D27AD07ECE801066
:10485000EFF00FD52A87B71700800A07938707ACB8
:10486000BA979C432326F4FA8327C4FA8DC70325FD
:10487000C4FAEFF00FCB2324A4FA832784FA83A78A
:10488000872D2322F4FA832784FA83A7072D832513
:1048900044FA614582970100F640E6425643C6431A
:1048A0003644264596450646F2566257D257425838
:1048B000B258225E925E025FF24F25617300203093
:1048C0001D7186CE96CC9ACA9EC8A2C6AAC4AEC294
:1048D000B2C036DE3ADC3EDA42D846D672D476D260
:1048E0007AD07ECE8010EFF0AFCB2A87B71700804A
:1048F0000A07938707ACBA979C432326F4FA8327C9
:10490000C4FA8DC70325C4FAEFF0AFC12324A4FA7B
:10491000832784FA83A7072F2322F4FA832784FAB4
:1049200083A7872E832544FA654582970100F640C8
:10493000E6425643C6433644264596450646F25659
:104940006257D2574258B258225E925E025FF24FCF
:104950002561730020301D7186CE96CC9ACA9EC800
:10496000A2C6AAC4AEC2B2C036DE3ADC3EDA42D833
:1049700046D672D476D27AD07ECE8010EFF04FC277
:104980002A87B71700800A07938707ACBA979C431A
:104990002326F4FA8327C4FA8DC70325C4FAEFF05F
:1049A0004FB82324A4FA832784FA83A787302322CD
:1049B000F4FA832784FA83A70730832544FA6945EC
:1049C00082970100F640E6425643C64336442645E8
:1049D00096450646F2566257D2574258B258225E62
:1049E000925E025FF24F2561730020301D7186CE0A
:1049F00096CC9ACA9EC8A2C6AAC4AEC2B2C036DEBF
:104A00003ADC3EDA42D846D672D476D27AD07ECE1E
:104A10008010EFF0EFB82A87B71700800A07938756
:104A200007ACBA979C432326F4FA8327C4FA8DC7B0
:104A30000325C4FAEFF0EFAE2324A4FA832784FA07
:104A400083A707322322F4FA832784FA83A78731C6
:104A5000832544FA6D4582970100F640E6425643AD
:104A6000C6433644264596450646F2566257D25707
:104A70004258B258225E925E025FF24F2561730087
:104A800020301D7186CE96CC9ACA9EC8A2C6AAC4F2
:104A9000AEC2B2C036DE3ADC3EDA42D846D672D476
:104AA00076D27AD07ECE8010EFF08FAF2A87B717FC
:104AB00000800A07938707ACBA979C432326F4FA31
:104AC0008327C4FA8DC70325C4FAEFF08FA52324EA
:104AD000A4FA832784FA83A787332322F4FA83274F
:104AE00084FA83A70733832544FA7145829701002E
:104AF000F640E6425643C6433644264596450646AA
:104B0000F2566257D2574258B258225E925E025F06
:104B1000F24F2561730020301D7186CE96CC9ACA63
:104B20009EC8A2C6AAC4AEC2B2C036DE3ADC3EDA25
:104B300042D846D672D476D27AD07ECE8010EFF0AC
:104B40002FA62A87B71700800A07938707ACBA9762
:104B50009C432326F4FA8327C4FA8DC70325C4FA9D
:104B6000EFF02F9C2324A4FA832784FA83A7073528
:104B70002322F4FA832784FA83A78734832544FA0F
:104B8000754582970100F640E6425643C6433644D7
:104B9000264596450646F2566257D2574258B258B5
:104BA000225E925E025FF24F2561730020301D711C
:104BB00086CE96CC9ACA9EC8A2C6AAC4AEC2B2C0BD
:104BC00036DE3ADC3EDA42D846D672D476D27AD095
:104BD0007ECE8010EFF0CF9C2A87B71700800A079F
:104BE000938707ACBA979C432326F4FA8327C4FA29
:104BF0008DC70325C4FAEFF0CF922324A4FA8327AC
:104C000084FA83A787362322F4FA832784FA83A7BA
:104C10000736832544FA794582970100F640E6423B
:104C20005643C6433644264596450646F2566257D5
:104C3000D2574258B258225E925E025FF24F25610F
:104C4000730020301D7186CE96CC9ACA9EC8A2C62B
:104C5000AAC4AEC2B2C036DE3ADC3EDA42D846D68C
:104C600072D476D27AD07ECE8010EFF06F932A87FE
:104C7000B71700800A07938707ACBA979C4323268F
:104C8000F4FA8327C4FA8DC70325C4FAEFF06F89BD
:104C90002324A4FA832784FA83A707382322F4FA6B
:104CA000832784FA83A78737832544FA7D45829733
:104CB0000100F640E6425643C64336442645964533
:104CC0000646F2566257D2574258B258225E925E5A
:104CD000025FF24F256173002030011122CE0010D7
:104CE000F32750302326F4FE8327C4FE93F7F703FF
:104CF0002326F4FE0327C4FE8947630DF70003272C
:104D0000C4FE8D47630AF7000327C4FE8547630787
:104D1000F70039A08D4731A0914721A0854711A008
:104D200081473E85724405618280797122D60018E0
:104D3000232EA4FC232CB4FCF32750302326F4FEAE
:104D40008327C4FE93F707FC2326F4FE832784FD04
:104D50002324F4FE0327C4FD914763E0E70683277D
:104D6000C4FD13972700B707012093870777BA97E9
:104D70009C438287832784FE739077308327C4FE09
:104D800093E72700739057300DA8832784FE739014
:104D900077308327C4FE93E737007390573031A8EC
:104DA000832784FE93E717007390573039A0832739
:104DB00084FEF19B7390573001000100325445612D
:104DC0008280011122CE00102326A4FE0327C4FEF8
:104DD000AD476302F7040327C4FEAD4763CDE70088
:104DE0000327C4FE8D476308F7020327C4FE9D47CF
:104DF0006303F7021DA00327C4FEC147634FF700FA
:104E00000327C4FEFD4763D8E7000327C4FE9307CA
:104E100000086314F700854719A0010081473E850B
:104E2000724405618280797106D622D40018232E3F
:104E3000A4FC232CB4FC232AC4FC232604FE8327D1
:104E4000C4FD99E3FD5749A8032784FDFD4763E0AE
:104E5000E708832784FD13972700B707012093876E
:104E60004778BA979C438287832744FD81C7EFE048
:104E7000DFF48DA0EFE0FFF5B1A8832744FD81C7E3
:104E8000EFE0BFF681A8EFE0DFF7A9A0832744FD9C
:104E900081C7EFE09FF83DA8EFE0DFF925A8832761
:104EA00044FD81C7EFE0BFFA35A0EFE01FFC1DA075
:104EB000832744FD99C7832784FD3E85EFE0BFFC2F
:104EC00011A8832784FD3E85EFE0BFFE21A0FD579A
:104ED0002326F4FE8327C4FE3E85B250225445614A
:104EE0008280797122D60018232EA4FC232CB4FCD6
:104EF000232AC4FC8327C4FD2326F4FE032784FD54
:104F0000AD4763C2E702832744FD91CF0327C4FE68
:104F1000832784FD9387870E8A07BA97032744FD6A
:104F200098C3814711A0FD573E8532544561828068
:104F3000797106D622D40018232EA4FC8327C4FD41
:104F40002322F4FE832744FEDC43DDEF232604FE08
:104F5000B9A0832644FE0327C4FEBA878607BA9702
:104F60008E07B69723A80708832644FE0327C4FEAE
:104F7000BA878607BA978E07B69723AA07088326AB
:104F800044FE0327C4FEBA878607BA978E07B697F2
:104F900023AC07088327C4FE85072326F4FE0327D6
:104FA000C4FEFD47E3D7E7FA232404FE1DA0032730
:104FB00044FE832784FE9387870E8A07BA97374774
:104FC00001201307E7ED98C3832784FE8507232478
:104FD000F4FE032784FEAD47E3DBE7FCF327503004
:104FE0002320F4FEB70701209387C713032704FE8D
:104FF0006318F700B747012093850718014535333B
:10500000832744FE0547D8C30100B25022544561AE
:105010008280797106D622D40018232EA4FC232C7A
:10502000B4FC232AC4FC2328D4FC232604FE8327B3
:10503000C4FD2324F4FE032584FD6133AA8799E38C
:10504000D55771AA032784FD930700086317F7005B
:105050006931AA8799C3CD5759A2832744FDB9CF97
:10506000032784FD93070008631FF700832784FE4E
:10507000032744FD23A8E738832784FE032704FD84
:1050800023ACE73899AA832684FE032784FDBA87D8
:105090008607BA978E07B697032744FD23A8E7082B
:1050A000832684FE032784FDBA878607BA978E0776
:1050B000B697032704FD23ACE70805A2032784FD68
:1050C000AD47630CF70C032784FDAD4763CDE700C4
:1050D000032784FD8D476309F702032784FD9D475D
:1050E0006301F706C5A8032784FDC1476344F70E93
:1050F000032784FDFD4763D2E70A032784FD930756
:105100000008630DF706F9A0832684FE032784FDBB
:10511000BA878607BA978E07B697374701201307D5
:10512000E7FC23A8E708832684FE032784FDBA87CB
:105130008607BA978E07B697032704FD23AAE708C8
:1051400069A8832684FE032784FDBA878607BA9759
:105150008E07B697374701201307E70D23A8E70806
:10516000832684FE032784FDBA878607BA978E07B5
:10517000B697032704FD23AAE70885A0832784FEAA
:10518000374701201307870C23A8E738832784FEBD
:10519000032704FD23ACE73889A0832684FE032778
:1051A00084FDBA878607BA978E07B69737470120DE
:1051B000130767EF23A8E708832684FE032784FDEF
:1051C000BA878607BA978E07B697032704FD23AAE6
:1051D000E70821A0D1572326F4FE8327C4FE3E858D
:1051E000B250225445618280011106CE22CC0010BB
:1051F0002326A4FE2324B4FE832784FE0546BE8511
:105200000325C4FEEFF03FC2AA873E85F240624408
:1052100005618280011106CE22CC00102326A4FE57
:105220002324B4FE832784FE0146BE850325C4FEE5
:10523000EFF07FBFAA873E85F2406244056182801D
:10524000011106CE22CC00102326A4FEEFF0FFA809
:10525000AA873E85F240624405618280011106CE34
:1052600022CC00102326A4FE2324B4FE832784FE30
:1052700099EBB747012093850718032584FEEFF0CB
:10528000DFAA81470DA0032784FE8547631CF70032
:10529000B797012093850790032584FEEFF0FFA8C0
:1052A000814711A0FD573E85F2406244056182802E
:1052B000011122CE00102326A4FE2324B4FE2322B3
:1052C000C4FE81473E85724405618280397122DEC9
:1052D00080002326A4FC01438143232464FE23266B
:1052E00074FE732500B82322A4FE732500B023208A
:1052F000A4FE732500B8232EA4FC832844FE0325B6
:10530000C4FDE390A8FE032544FEAA850146139838
:1053100005008147032604FEB286014733E6D70025
:105320002324C4FEB367E8002326F4FE832784FE0B
:105330000328C4FE3E85C285725421618280797142
:1053400006D622D44AD24ED00018232EA4FC83279E
:10535000C4FD81E70149814921A80325C4FDEFE08F
:10536000BF992326A4FE8327C4FE3E89FD87BE89FC
:10537000CA874E883E85C285B2502254125982593E
:1053800045618280797106D622D40018232EA4FCB0
:10539000814701482320F4FE232204FF0325C4FD96
:1053A000EFE03F982326A4FE8327C4FE8DC7832702
:1053B000C4FE83A7C7132324F4FE832784FE81CF72
:1053C000832784FE9C43F847930704FE3E86854569
:1053D000032584FE0297832704FE032844FE3E85AE
:1053E000C285B250225445618280797106D622D49A
:1053F00026D20018232EA4FC2328B4FC232AC4FCA4
:10540000FD572326F4FE0325C4FDEFE09F912324DE
:10541000A4FE832784FE8DCF832784FE83A7C71332
:105420002322F4FE832744FE85C7832744FE9C4342
:10543000A44B0325C4FDEFE0FF89AA87032604FDE2
:10544000832644FDBE85032544FE82942326A4FEC4
:105450008327C4FE3E85B250225492544561828017
:10546000011122CE00102326A4FE938701813E85E0
:10547000724405618280011122CE00102326A4FE11
:105480009D473E85724405618280011122CE001045
:105490002326A4FE938701813E85724405618280A4
:1054A000011122CE00102326A4FE8D473E857244B2
:1054B00005618280797106D622D40018232EA4FCBF
:1054C000232CB4FCFD572326F4FE0325C4FDEFE096
:1054D0005F852324A4FE832784FE9DC7832784FE43
:1054E00083A7C70D2322F4FE832744FE91CF832791
:1054F00044FE9C43F847930784FD3E868D45032573
:1055000044FE02972326A4FE8327C4FE3E85B250A4
:10551000225445618280797106D622D40018232E48
:10552000A4FC232CB4FCFD572326F4FE0325C4FD64
:10553000EFE02FFF2324A4FE832784FE9DC783274B
:1055400084FE83A7C70D2322F4FE832744FE91CF58
:10555000832744FE9C43F847930784FD3E86894594
:10556000032544FE02972326A4FE8327C4FE3E851E
:10557000B250225445618280797106D622D4001837
:10558000232EA4FC232CB4FC232604FE0325C4FDF7
:10559000EFE02FF92324A4FE832784FE9DC78327F1
:1055A00084FE83A7C70D2322F4FE832744FE91CFF8
:1055B000832744FE9C43F847930784FD3E8691452C
:1055C000032544FE02972326A4FE8327C4FE3E85BE
:1055D000B250225445618280011106CE22CC0010C7
:1055E0002326A4FE0325C4FEEFE0AFF3AA873E8581
:1055F000F240624405618280797106D622D4001897
:10560000232EA4FC232CB4FC232AC4FC0325C4FDB4
:10561000EFE02FF12326A4FE8327C4FE99CB0326B7
:1056200044FD832584FD0325C4FEEFF09F8BAA87EC
:1056300011A0FD573E85B250225445618280011170
:1056400022CE00102326A4FE2324B4FE832784FE4A
:1056500083D7070013F737008D476314F70091478E
:1056600011A089473E85724405618280797122D6F6
:105670000018232EA4FCF32710342326F4FE8327DE
:10568000C4FE3E85325445618280011122CE001055
:105690002326A4FE2324B4FE832784FE73901734AC
:1056A00081473E85724405618280011106CE22CC7D
:1056B00000102326A4FE0325C4FEEFE02FE9AA87ED
:1056C0003E85F240624405618280011122CE0010C5
:1056D0002326A4FE0327C4FEB7070080938707464E
:1056E0006315F700B707000C11A081473E8572448F
:1056F00005618280011122CE00102326A4FE03271B
:10570000C4FEB7070080938707466315F700930729
:10571000500311A081473E857244056182800111CA
:1057200022CE00102326A4FE0327C4FEB707008064
:10573000938707466314F7009D4711A081473E8574
:10574000724405618280011122CE00102326A4FE3E
:105750002324B4FE832784FE91E7B7070080938754
:10576000070911A081473E857244056182800111BD
:1057700022CE00102326A4FE2324B4FE832784FE19
:1057800099E3AD4711A081473E857244056182804F
:10579000011122CE00102326A4FE8327C4FE99E324
:1057A000814711A0FD573E85724405618280797161
:1057B00006D622D40018232EA4FC232CB4FC0325E7
:1057C000C4FD21372326A4FE832784FD1397C70039
:1057D0008327C4FE3E97B70720009107BA979C43E2
:1057E0003E85B250225445618280797106D622D41A
:1057F0000018232EA4FC232CB4FC232AC4FC03256C
:10580000C4FDE1352326A4FE832784FD1397C7003A
:105810008327C4FE3E97B70720009107BA973E87BB
:10582000832744FD1CC30100B2502254456182808D
:10583000797106D622D40018232EA4FC232CB4FCA4
:10584000232AC4FC0325C4FD49352326A4FE83274F
:1058500084FD1397C7008327C4FE3E97B707200037
:10586000BA973E87832744FD1CC381473E85B250CB
:10587000225445618280797106D622D40018232EE5
:10588000A4FC232CB4FC0325C4FD81352326A4FEEF
:10589000832784FD1397C7008327C4FE3E97B7076D
:1058A0002000BA979C433E85B250225445618280C5
:1058B000797106D622D40018232EA4FC232CB4FC24
:1058C000232AC4FC0325C4FD09352326A4FE032591
:1058D000C4FDB135AA872324F4FE832784FE85C73F
:1058E000032744FD832784FE637FF700832784FD1D
:1058F0008A073E878327C4FEBA973E87832744FDE5
:105900001CC3814711A0FD573E85B250225445610A
:105910008280797106D622D40018232EA4FC232C71
:10592000B4FC0325C4FD55332326A4FE832784FD40
:105930008A073E878327C4FEBA979C433E85B250B0
:10594000225445618280797106D622D40018232E14
:10595000A4FC232CB4FC232AC4FC2328D4FC032558
:10596000C4FDA5332326A4FE832784FD1397770067
:105970008327C4FEBA97032744FD15870A073E977D
:105980008967BA979C432324F4FE832704FD81CFC3
:10599000832744FDFD8B0547B317F7003E87832718
:1059A00084FED98F29A8832744FDFD8B0547B317B3
:1059B000F70093C7F7FF3E87832784FEF98F0327FD
:1059C00084FD931677000327C4FE3697832644FD93
:1059D00095868A06BA96096736971CC381473E8525
:1059E000B250225445618280011106CE22CC0010B3
:1059F0002326A4FE2324B4FE1305C012EF20B054C6
:105A0000797106D622D40018232EA4FC232CB4FCD2
:105A1000832784FD2326F4FEEFE08FB8AA873E8516
:105A2000853B2324A4FE832584FE0325C4FE413345
:105A30002322A4FE0325C4FEEFF0DFCBAA87232098
:105A4000F4FE032744FE832704FE6372F704032752
:105A5000C4FE832744FE8A07BA979C478DCB032751
:105A6000C4FE832744FE8A07BA9703A8870003264B
:105A700044FE8326C4FE032744FEBA878607BA97EE
:105A80008E07B69783A7070FBE8532850298032637
:105A900044FE832584FE0325C4FE813B0100B250F1
:105AA000225445618280397106DE22DC8000232683
:105AB000A4FC8327C4FC2322F4FE832744FEDC439A
:105AC000639A0712232604FE31AA0325C4FCEFF0D3
:105AD0007FC22320A4FE8325C4FE0325C4FCEFF06F
:105AE0009FC6232EA4FC8325C4FE0325C4FCEFF02F
:105AF0001FC8232CA4FC8327C4FD9C439C4303257F
:105B0000C4FD8297232404FE85A88146032684FED3
:105B10008325C4FE032544FE3D35032784FE8327E9
:105B200004FE6356F7040146832584FE0325C4FC66
:105B30004133032744FE832784FE8A07BA9723A4B0
